:03000000022225B4
:0C222500787FE4F6D8FD75812202226C5F
:0C000300000000000000000000000000F1
:0B001200EF1FAC0670011E4C70F622C0
:10282200AB07AA06EB1BAE0270011A4E60097FAA23
:082832007E0512001280ED2268
:101D4D00907120E04480F07F057E00120012E4FFC8
:101D5D00FE12282275A75575AC589071327450F04B
:101D6D009071307403F0907136742FF07F18EF245A
:101D7D0066FDE434718D82F583E4F00FEFB433EE3C
:101D8D00904011E4935407FF90711CE054F84FF00C
:101D9D00904017E493547FFF90711DE054804FF0F5
:101DAD00904010E493FF5401C43333335480FE90BC
:101DBD007123E0547F4EF0EFC313543F4440FFA313
:101DCD00E054804FF0904012E493FF540FFE907159
:101DDD0046E054F04EF0EFC4540FFF90714FE054B5
:101DED00F04FF0904013E493543FFF907140E05456
:101DFD00C04FF0904014E493907126F0904015E49C
:0E1E0D0093907128F0904016E49390712AF0A3
:011E1B0022A4
:1026680054583843313236785F53444B206D616992
:102678006E2073746172740A00616463305F7661FE
:102688006C203D2025642020616463315F76616C95
:0A269800203D202564200D0A2000DB
:0E283A009060D1EFF01228489060D1E0FF22AC
:1024BA00121D4D9060EB7401F07F0A7E00122822F3
:1024CA001227827BFF7A2679681226A21226D5E580
:1024DA00B254CF441042B2E5B2543F444042B21221
:1024EA0027A11225D9122622121EEB1212BB7BFF3C
:1024FA007A2679819060D5E0FFA3E09060A4CFF0BE
:10250A00A3EFF09060D7E0FFA3E09060A6CFF0A31E
:10251A00EFF01209EA1227BC75D9AA12270212276C
:06252A002F1223C080F215
:0D284800E5F430E4FB8FF7E5F430E4FB220B
:10278200E4906070F078E2E254F3F2E24404F290F2
:0E279200718F7403F075F60175F59F75F210E6
:0127A0002216
:1026A2009060D2EBF0A3EAF0A3E9F09060D2E0FBF5
:1026B200A3E0FAA3E0F912062D60179060D2A3E41A
:1026C20075F0011206ECA9F0FA12062DFF12284845
:0326D20080D9228A
:051FAF004260E70000A4
:1027A10043A820D2AF75D10178957401F2187476DF
:0B27B100F2789174A0F21874FDF2227F
:03001E0002243F7A
:10243F00C0E0C0F0C083C082C0D075D000C000C063
:10244F0001C002C003C004C005C006C00775B2A01A
:10245F007891E230E737E24480F21227F0121EEB58
:10246F009060E8E004F070069060E7E004F0C3903D
:10247F0060E8E094E89060E7E094034010E4F0A394
:10248F00F01215F11210F6121C511222B175B25042
:10249F00D007D006D005D004D003D002D001D00091
:0B24AF00D0D0D082D083D0F0D0E0323B
:1025D90078567407F278277417F218746FF2783303
:1025E900E4F218F27819E24401F27811E24401F2B6
:1025F9007817E24401F27812E24401F27814E244D5
:1026090001F27818E24401F278D3E254CFF2E244BD
:0926190010F290718C740AF02299
:0A1FB4004260E300004260E5000017
:1026D50078D3E254FCF2907172740DF043A904753D
:1026E500D11075E6FF75E7FF75DAFEE4F5DB75DCFD
:0D26F5004275DD0475DF0375DE01D2AF22F2
:03002A0002258F1D
:10258F00C0E0C083C082C0D075D000C005C007E5D1
:10259F00EE30E11243E202AFE9EFFFADE8ED9060FC
:1025AF00E5CFF0A3EFF0E5EE30E01243E201AFE745
:1025BF00EFFFADE6ED9060E3CFF0A3EFF0D007D0E3
:0A25CF0005D0D0D082D083D0E032D6
:1018BF006C5F7077722E656E203D20310D0A006CC3
:1018CF005F7077722E656E203D20300D0A006578AF
:1018DF005F74656D705F656E203D20300D0A006589
:1018EF00785F74656D705F656E203D20310D0A0065
:1018FF0061646A7573745F656E203D20300D0A0058
:10190F0061646A7573745F656E203D20310D0A0046
:10191F005F335F312E656E20203D20310D0A005F51
:10192F00335F312E656E20203D20300D0A00745F2D
:10193F006374726C2E656E203D20310D0A00745F4A
:10194F006374726C2E656E203D20300D0A00745F3B
:10195F006374726C2E6C697374203D2030200D0AF5
:10196F0000745F6374726C2E6C697374203D203148
:10197F000D0A2000745F6374726C2E6C697374208F
:10198F003D20320D0A2000745F6374726C2E6C69F7
:10199F007374203D20330D0A2000745F6374726CE2
:1019AF002E6C697374203D20340D0A006C76642010
:1019BF00707772206C6F77200A004C45445F505748
:1019CF00525F4F4E001770040BB8080000FF1770DE
:1019DF00051068030BB8040000FF177004106804AB
:1019EF000BB8040000FF1770040E10020708030E57
:0819FF0010021770010000FF47
:101FBE0042601200004460260000000044603A00B7
:101FCE0000000044606B00000000426020000042F0
:101FDE0060691770C11741606700C11549602F17FE
:101FEE0070060BB8060000FF42600000FF4260382A
:101FFE0000004160170041606F0154605300000003
:10200E0000000000000000000000000000000000C2
:10201E00004260090000C112C113416048004160D6
:10202E00680041601F004460053F80000044602A44
:0B203E00428C00004460220000000003
:1023C0009060DBE0FEA3E0FF7C007D5C120697AB33
:1023D00007AA06301668D3E094609060DBE0940EA4
:1023E00040028018EB4A700B906049740EF0A374A1
:1023F000108012C3EB9428EA940040139060497453
:1024000017F0A37470F0906000EAF0A3EBF0229054
:102410006000E06A7003A3E06B60237C007D3CAF4A
:1024200003AE02120685EF2410FFEE340E906049D1
:0E243000F0A3EFF0AF03906000EAF0A3EFF02E
:01243E00227B
:1015F100201403021756906011E060030217563061
:101601001316906069E0FFA3E0906053CFF0A3EF61
:10161100F0E4906017F0C213C39060E2E094B890D8
:1016210060E1E0940B507990606FE064017071901B
:101631006026A3A3E0FEA3E0FF906017E0FB25E096
:101641002453F582E43460F583EEF0A3EFF090606B
:1016510053E0FEA3E0FF7C007D0A120697EB240114
:10166100FDE433FC120685C3E09FFF906053E09ECA
:10167100FE906009F0A3EFF0E490606FF0906038A5
:10168100F0A3F0906069EEF0A3EFF0906017E00432
:10169100F0E0D394094007E4906069F0A3F0D2121E
:1016A100D39060E2E094B89060E1E0940B500302C3
:1016B1001730E4906017F030127590606FE06401AC
:1016C100706D20135D30161D906018E0B401079015
:1016D100603AA3A38003906049E0FFA3E0906069B2
:1016E100CFF0A3EFF020161D906018E0B401079031
:1016F100606BA3A38003906053E0FFA3E090606957
:10170100CFF0A3EFF020801A906020E0FEA3E0FF6D
:10171100D390606AE09F906069E09E4005EEF0A37F
:10172100EFF030130AC213C212E4906017F0229056
:101731006039E004F07006906038E004F0906038A1
:10174100E0B40711A3E0B4080CE4906038F0A3F012
:0817510090606F04F0D2152234
:10275A00906012E0FEA3E0FFC374709F906071F076
:10276A0074179E906070F0EE7833F2906013E01860
:07277A00F27817E24401F2BE
:012781002235
:1027F000906002E0C3940A5003E004F090602EE081
:0928000004F0906048E004F022AD
:10270200906002E0C3940A4012E4F0906018E0B4D2
:10271200010312146E121B30121E1C906048E0B4AA
:0D2722000308E4F0122191122056020E026D
:10146E009060E5E0FAA3E0FB4A70269060E3E0703E
:10147E0002A3E0701C20940A9060261208AE0000B1
:10148E0000003094529060261208AE000017708053
:10149E0046EB2401FFE43AFE7C177D701209529050
:1014AE0060261208A2906026E0FCA3E0FDA3E0FEF9
:1014BE00A3E0FFC006C0079060E4E02401FF906047
:1014CE00E3E03400AB07FAE4F9F8D007D0061207D0
:1014DE00C59060261208A2E49060E5F0A3F090603B
:1014EE00E3F0A3F0906026A3A3E0FEA3E0FF9060DC
:1014FE0068E025E0243EF582E43460F583EEF0A347
:10150E00EFF0906068E004F0E0B4050B90601F749B
:10151E0001F0E4906068F090601FE06401706D90DF
:10152E0060261208AE00000000E4906070F090603B
:10153E0026E0F8A3E0F9A3E0FAA3E0FB906070E0E8
:10154E0025E0243EF582E43460F583E0FEA3E0FF5F
:10155E00E4FCFDEB2FFFEA3EFEED39FDEC38FC908E
:10156E0060261208A2906070E004F0E0B405BF900F
:10157E006026E0FCA3E0FDA3E0FEA3E0FFE47B0514
:10158E00FAF9F81207C59060261208A2301640909C
:10159E006049E0FEA3E0FFE4FCFD906026E0F8A3C6
:1015AE00E0F9A3E0FAA3E0FB12073AE47B707A17A6
:1015BE00F9F81207C590603A1208A290603AE0FC62
:1015CE00A3E0FDA3E0FEA3E0FF9060261208A29028
:1015DE006026E0FCA3E0FDA3E0FEA3E0FF90606BBD
:0315EE000208A24E
:101E1C009060EBE064017003021EEAE47F0AFEFDB1
:101E2C00FC906026E0F8A3E0F9A3E0FAA3E0FBD372
:101E3C00120865405F906026E0FCA3E0FDA3E0FE85
:101E4C00A3E024F6FBEE34FFFAED34FFF9EC34FF9B
:101E5C00F8906012E0FEA3E0FFE4FCFDD3120865ED
:101E6C0040069060EB7402F0906026E0FCA3E0FD6D
:101E7C00A3E0FEA3E0240AFBE43EFAE43DF9E43CD3
:101E8C00F8906012E0FEA3E0FFE4FCFDC3120865CD
:101E9C00504C8044906012E0FEA3E0FFE4FCFD9007
:101EAC006026E0F8A3E0F9A3E0FAA3E0FBD3120864
:101EBC006540069060EB7402F0906012E0FEA3E0C7
:101ECC00FFE4FCFD906026E0F8A3E0F9A3E0FAA3A0
:0F1EDC00E0FBC312086550069060EB7403F02220
:100E02009060EBE0640160030210F590601FE06403
:100E12000160030210F5301603020F7A906018E0A9
:100E22007011906069E0FEA3E0FFE4FCFD90602693
:100E32001208A2E4FBFA7940784190602AE0FCA310
:100E4200E0FDA3E0FEA3E0FF12022E906022120852
:100E5200A2E4FFFE7D807C3F906022E0F8A3E0F9EF
:100E6200A3E0FAA3E0FB1202CB500A906022120820
:100E7200AE4120000090602EE0FCE412034E906030
:100E820022E0F8A3E0F9A3E0FAA3E0FB1202CB60B0
:100E92000540030210F5E490602EF0906012E0FE2F
:100EA200A3E0FFE4FCFD906026E0F8A3E0F9A3E0F4
:100EB200FAA3E0FBD31208655003020F42E4FFFEDF
:100EC2007D807CBF90602AE0F8A3E0F9A3E0FAA35A
:100ED200E0FB120034E4FBFA79A8784212022EE415
:100EE200FBFA798078BF12003490604B1208A2900E
:100EF200602AE0FCA3E0FDA3E0FEA3E0FFE4FBFA2E
:100F0200F9783F12003490602A1208A290604BE0F8
:100F1200FCA3E0FDA3E0FEA3E0FF9060741208A230
:100F22007F007E007DA07C40121759E4FBFA7970A5
:100F32007842120125120382906012EEF0A3EFF0C4
:100F4200906012E0FEA3E0FFE4FCFD906026E0F872
:100F5200A3E0F9A3E0FAA3E0FBD3120865501690D0
:100F62006026A3A3E0FFA3E0906012CFF0A3EFF00E
:100F7200E49060EBF012275A2016030210F59060FD
:100F820018E0FB7011906049E0FEA3E0FFE4FCFD75
:100F92009060261208A2EBB4011490603AE0FCA320
:100FA200E0FDA3E0FEA3E0FF9060261208A2E4FBAE
:100FB200FA7940784190602AE0FCA3E0FDA3E0FECC
:100FC200A3E0FF12022E9060221208A2E4FFFE7D2F
:100FD200807C3F906022E0F8A3E0F9A3E0FAA3E06E
:100FE200FB1202CB500A9060221208AE4120000090
:100FF20090602EE0FCE412034E906022E0F8A3E041
:10100200F9A3E0FAA3E0FB1202CB60054003021051
:10101200F5E490602EF0906012E0FEA3E0FFE4FCA5
:10102200FD906026E0F8A3E0F9A3E0FAA3E0FBD389
:1010320012086550030210BDE4FFFE7D807CBF9064
:10104200602AE0F8A3E0F9A3E0FAA3E0FB1200347F
:10105200E4FBFA79A8784212022EE4FBFA7980784E
:10106200BF12003490604B1208A290602AE0FCA3E9
:10107200E0FDA3E0FEA3E0FFE4FBFAF9783F1200F3
:101082003490602A1208A290604BE0FCA3E0FDA31A
:10109200E0FEA3E0FF9060741208A27F007E007D54
:1010A200A07C40121759E4FBFA79707842120125AC
:1010B200120382906012EEF0A3EFF0906012E0FE55
:1010C200A3E0FFE4FCFD906026E0F8A3E0F9A3E0D2
:1010D200FAA3E0FBD31208655016906026A3A3E0A2
:1010E200FFA3E0906012CFF0A3EFF0E49060EBF08A
:0410F20012275A2245
:102191009060EBE064026003022224906012E0FE92
:1021A100A3E0FFE4FCFD906026E0F8A3E0F9A3E0E2
:1021B100FAA3E0FBD312086540213015109060139B
:1021C100E004F07016906012E004F0800E9060134D
:1021D100E0240AF0906012E03400F0906012E0FE1A
:1021E100A3E0FFE4FCFD906026E0F8A3E0F9A3E0A2
:1021F100FAA3E0FBD31208655026906026A3A3E062
:10220100FEA3E0FF906012EEF0A3EFF0E49060EB2C
:10221100F0AD07AC061203499060051208A2C21581
:0422210012275A2204
:102056009060EBE0640360030220F6906012E0FEFD
:10206600A3E0FFE4FCFD906026E0F8A3E0F9A3E01E
:10207600FAA3E0FBC3120865502E301508906013D2
:10208600E024FF801BD3906013E09432906012E04E
:1020960094004006A3E024F68006906013E024FF37
:1020A600F0906012E034FFF0906012E0FEA3E0FFD3
:1020B600E4FCFD906026E0F8A3E0F9A3E0FAA3E0D3
:1020C600FBC31208654026906026A3A3E0FEA3E0AA
:1020D600FF906012EEF0A3EFF0FDAC06E4120349A8
:1020E6009060051208A2C215E49060EBF012275A20
:0120F60022C7
:1012BB0012253078D2E2543FF278D0E24408F2089B
:1012CB00E24408F208E254CFF278D0E24404F27818
:1012DB00D2E254F3F278D0E24402F278C2E254FC48
:1012EB00F278C0E24401F278C2E254CFF278C0E265
:1012FB004404F278C2E2543FF278C0E24408F22090
:10130B00800E9060197401F07BFF7A1879BF800B07
:10131B00E4906019F07BFF7A1879CE1209EAD3902A
:10132B0060D6E094A09060D5E0940F400AC2147B85
:10133B00FF7A1879DD8008D2147BFF7A1879EE12C8
:10134B0009EAD39060D8E094A09060D7E0940F4066
:10135B000AC2167BFF7A1879FF8008D2167BFF7AB8
:10136B0019790F1209EA30820E9060187401F07B24
:10137B00FF7A19791F8010E4906018F090601F04B9
:10138B00F07BFF7A19792E1209EA20830E906011F7
:10139B007401F07BFF7A19793D800BE4906011F0BA
:1013AB007BFF7A19794D1209EA30932130921E3066
:1013BB00911BE4906010F090601404F0A37460F043
:1013CB00A3742FF07BFF7A19795D02146A209322A4
:1013DB0030921F30911C9060107401F09060147467
:1013EB00FFF0A37419F0A374D4F07BFF7A19797012
:1013FB00806D30932220921F30911C9060107402EC
:10140B00F090601474FFF0A37419F0A374DDF07BFB
:10141B00FF7A197983804830932230921F20911CD8
:10142B009060107403F090601474FFF0A37419F0C3
:10143B00A374E9F07BFF7A197996802320932320FC
:10144B00922030911D9060107404F090601474FF22
:10145B00F0A37419F0A374F5F07BFF7A1979A91234
:03146B0009EA2269
:101C5100906019E064016003021D4C7F107E0EFD4F
:101C6100FC90601BE0F8A3E0F9A3E0FAA3E0FBC35A
:101C7100120865501F90601BE0FCA3E0FDA3E0FE8D
:101C8100A3E02401FFE43EFEE43DFDE43CFC906062
:101C91001B0208A2D213301661906018E064017033
:101CA1002E906049E0FEA3E0FF7C007D6412069760
:101CB1007C007D4B120685E4FD90603AE0F8A3E0DC
:101CC100F9A3E0FAA3E0FBD3120865402D80009050
:101CD1006049E0FEA3E0FF7C007D641206977C0072
:101CE1007D4B120685906069EEF0A3EFF090601ACB
:101CF1007401F0E4906019F0D21520163A90601842
:101D0100E0601DE47F947E11FDFC906026E0F8A365
:101D1100E0F9A3E0FAA3E0FBD312086540198000C3
:101D21009060697411F0A37494F090601A7401F0DA
:101D3100E4906019F0D215E4906019F0906069E0C8
:0C1D4100FFA3E0906020CFF0A3EFF022A1
:101B3000906011E0FB702B301628906018E0B40123
:101B40001090603AE0FCA3E0FDA3E0FEA3E0FF807C
:101B50000B906049E0FEA3E0FFE4FCFD90602612DC
:101B600008A290601AE064016005EB6401707A30AD
:101B70001647906018E0B40140906069E0FEA3E071
:101B8000FFE4FCFD90603AE0F8A3E0F9A3E0FAA3DB
:101B9000E0FBD31208654011906069E0FEA3E0FF0E
:101BA000E4FCFD90603A1208A290603AE0FCA3E0E9
:101BB000FDA3E0FEA3E0FF802A906069E0FEA3E0C1
:101BC000FFE4FCFD906026E0F8A3E0F9A3E0FAA3AF
:101BD000E0FBD31208654011906069E0FEA3E0FFCE
:101BE000E4FCFD9060261208A2301464906011E0BD
:101BF000705E201617906018E07011906069E0FE2A
:101C0000A3E0FFE4FCFD9060261208A2906069E06A
:101C1000FEA3E0FFE4FCFD906026E0F8A3E0F9A35A
:101C2000E0FAA3E0FBD31208654011906069E0FE82
:101C3000A3E0FFE4FCFD9060261208A2906069E03A
:101C40007002A3E0700A9060261208AE0000000047
:011C50002271
:1010F600906011E0640160030212BA90600FE0751F
:10110600F003A4FF906014E0FBA3E0FAA3E02FF93C
:10111600EA35F0FA900002120646F470030212BA9B
:1011260090600BE0FCA3E0FDA3E0FEA3E02401FF3A
:10113600E43EFEE43DFDE43CFC90600B1208A29008
:10114600600FE075F003A4FF906014E0FBA3E0FAE3
:10115600A3E02FF9EA35F0FA900002120646FE7572
:10116600F00EA4CE75F010A4FFE5F02EFEE4FCFD13
:1011760090600BE0F8A3E0F9A3E0FAA3E0FBC3124A
:10118600086550030212BA90600FE004F0D2159081
:10119600600B1208AE00000000906014E0FBA3E0B4
:1011A600FAA3E0F990600FE075F003A4F58285F0EC
:1011B60083120702FF906069E5F0F0A3EFF0D21307
:1011C600201603021251906069E0FEA3E08EF01231
:1011D60009251233070812230BB8120E0E1011F947
:1011E600106811F0177000001251906049E0FFA3DB
:1011F600E08034906049E0FEA3E0FF7C007D0A12A7
:1012060006977C007D078038906049E0FEA3E0FFEA
:101216007C007D0A1206977C007D0680239060493B
:10122600E0C313FFA3E013906069CF801A90604972
:10123600E0FEA3E0FF7C007D0A1206977C007D039A
:10124600120685906069EEF0A3EFF0906018E0B4A6
:101256000137301434906011E0702E906069E0FE22
:10126600A3E0FFE4FCFDA3E0F8A3E0F9A3E0FAA302
:10127600E0FBC3120865501190606BA3A3E0FFA3C7
:10128600E0906069CFF0A3EFF0906069E0FAA3E028
:10129600FBFFAE02E4FCFD9060261208A230161495
:1012A600906018E0B4010DAF03AE02E4FCFD90605F
:0512B6003A1208A2221B
:1022B10020170302233C7BFF7A1979BB1226A290D7
:1022C1006067E004F0E0C394054070E49060E9F0D9
:1022D100906067F0C217906012F0A3F0906069748B
:1022E10017F0A37470F0E4906010F090600B120886
:1022F100AE00000000E4906011F090600FF090607B
:1023010019F0A3F0A31208AE00000000E4906018D9
:10231100F09060261208AE00000000C214C21690B0
:1023210060051208AE400000001212BB9060EB7411
:0C23310001F07BFF7A1979C91209EA2239
:10253000E49060E9F0906067F0C217906012F0A339
:10254000F09060697417F0A37470F0E4906010F07C
:1025500090600B1208AE00000000E4906011F09053
:10256000600FF0906019F0A3F0A31208AE00000015
:1025700000E4906018F09060261208AE00000000A1
:0F258000C214C2169060051208AE40000000227F
:102809006C7664330A006C7664340A006C76642052
:09281900707772206F6E200A0036
:042049004160EA0008
:03000F0002233D8C
:10233D00C0E0C0F0C083C082C0D075D000C000C066
:10234D0001C002C003C004C005C006C00775B2A01D
:10235D0090715BE030E410E04410F09060E974019E
:10236D00F0A3E0FF1228489060EAE0B403119060FA
:10237D00E97403F0D2177BFF7A2879091226A2900F
:10238D0060EAE0B4040F9060E97404F07BFF7A28F2
:10239D00790F1226A275B250D007D006D005D00401
:1023AD00D003D002D001D000D0D0D082D083D0F0D5
:0323BD00D0E0323B
:1027BC0043A801D2AF90715AE05442F0E04495F036
:0A27CC00A3E0F09060EA7403F0222D
:1027D60043A801D2AF90715AE05442F0E0449DF014
:0A27E600A3E0F09060EA7404F02212
:10272F009060E9E0B4041AE4F07F0AFE12282290C8
:10273F0060E9E0700C7BFF7A2879151226A2122728
:0B274F00BC9060E9E0B40302D2172246
:08204D004160DF004160E0008A
:1026220078E2E244C0F278F2E24403F278E0E24473
:1026320080F208E2F278F0E24401F208E2F29071EC
:1026420023E054D8F0E0441EF09071227407F07534
:1026520099177869E24448F2759A18E24450F27F79
:06266200017E00022822A7
:101EEB007869E24401F2786BE230E1FA7402F2AF06
:101EFB0093EF75F010A4FFE594C4540FFDEF4DFF65
:101F0B009060D5E5F0F0A3EFF07869E24402F27847
:101F1B006BE230E2FA7404F2AF95EF75F010A4FFA8
:101F2B00E596C4540FFDEF4DFF9060D7E5F0F0A39D
:101F3B00EFF09060D5E0FEA3E0FF9060DAE02FF0C9
:101F4B009060D9E03EF09060D7E0FEA3E0FF906098
:101F5B00DEE02FF09060DDE03EF09060DFE004F01B
:101F6B00E0B40A3F9060D9E0FEA3E0FF7C007D0A5D
:101F7B001206979060E1EEF0A3EFF09060DDE0FECB
:101F8B00A3E0FF7C007D0A1206979060DBEEF0A3C6
:101F9B00EFF0E49060DFF09060D9F0A3F09060DD9B
:041FAB00F0A3F0228D
:10002D000203EEE86480F8E933E83360110460F010
:10003D00ED33EC337009E8FCE9FDEAFEEBFF220439
:10004D0060DED3EB9FEA9EE99DE8C2E78CF0C2F734
:10005D0095F0400CE8CCF8E9CDF9EACEFAEBCFFB00
:10006D001203B985D0F05804700320D5B3E804709D
:10007D00075002B2D50203F892D5EC0460F7E4CC38
:10008D00C0E0C398F8603B94186008400DD0E0FBC9
:10009D000203D0E4FBFAC9FC8028E830E406E4C989
:1000AD00FBE4CAFCE830E305E4C9CACBFCE854071D
:1000BD006010F8C3E913F9EA13FAEB13FBEC13FC28
:1000CD00D8F130F52FC3E49CFCEF9BFFEE9AFEEDCB
:1000DD0099FDD0E0FBEF4E4D4C701222DB03020375
:1000ED00F5EC2CFCEF33FFEE33FEED33FDED30E799
:1000FD00EB0203D0EF2BFFEE3AFEED39FDD0E0FB26
:10010D0050130BBB00030203F8ED13FDEE13FEEFCE
:08011D0013FFEC13FC0203D0F8
:10012500EC4D6011E8497017ED33EC3304600DE4D4
:10013500FCFFFEFD22E933E8330470F80203EE12FA
:1001450003B958046009E4CC2481500628500902FB
:1001550003F82840030203F5C0E0EB4A7044B98078
:1001650006D0E0FB0203E4EF4E701CBD8008EBFFF8
:10017500EAFEE9FD80EBE98DF0A4FEE5F002020E52
:10018500E9CDF9EAFEEBFFEF89F0A4FCE5F0CE89B5
:10019500F0A42EFFE435F0CD89F0A42DFEE435F072
:1001A5008067EF4E7005BD80D780C3EF8BF0A4ACA0
:1001B500F0EE8BF0A42CFCE435F0F8EF8AF0A42CDB
:1001C500E5F038FCE433CB8DF0A42CFCE5F03BF8EE
:1001D500EE8AF0A42CFCE5F038F8E433CF89F0A4DE
:1001E5002CFCE5F038CF3400CE89F0A42FFFE5F0E4
:1001F5003EFEE433C98DF0A42EFEE5F039CD8AF03C
:10020500A42FFFE5F03EFEE43DFD33D0E0FB5007B3
:100215000BBB000F0203F8EC2CFCEF33FFEE33FEB3
:06022500ED33FD0203D0E1
:10022B000203F8EC5D046005E8590470030203EE69
:10023B001203B9580460F6EC4860F2EC7004FDFE52
:10024B00FF22C860DB2481C85009C39860025006A6
:10025B000203F59850CAF582E9294B4A7005AB8227
:10026B000203E475F0007C1A7880C3EF9BEE9AEDE5
:10027B0099400DC3EF9BFFEE9AFEED99FDE842F01E
:10028B00DC23ACF0D0E0FFD0E0FED0E0FDAB822071
:10029B00E7101BEB60BAEC2CFCEF33FFEE33FEEDFB
:1002AB0033FD0203D0E803F830E705C0F075F0002A
:1002BB00EF2FFFEE33FEED33FD40B830E7C280AADF
:1002CB0074F8CC6480CCC86480C8F58204604FC3DA
:1002DB00EB9FF5F0EA9E42F0E99D42F0E89C45F079
:1002EB00603C501DE5825FFFE582D313CB5BCBF403
:1002FB002B5582FB50280ABA002409B9002008802C
:10030B001DE5825BFBE582D313CF5FCFF4C3132FC5
:10031B005582FF50090EBE00050DBD00010CC3EB4D
:10032B009FF5F0EA9E42F0E99D42F0E89C45F060B3
:09033B0007CC4820E701B3EC22D5
:1003440075F020800E75F010800575F0087D007E34
:10035400007F003392D530D503120857EC33401098
:10036400EF33FFEE33FEED33FDEC33FCD5F0ED223D
:0E037400E5F0247EA2D513CC92E7CDCEFF2279
:10038200EDD2E7CD33EC3392D524814006E4FFFE73
:10039200FDFC22FCE4CFCECDCC24E0501174FF80D2
:1003A200EDC3CC13CCCD13CDCE13CECF13CF04706F
:0703B200F030D5DE02085710
:10097F00E50D24A4F582E43460F583E0050D2290A3
:10098F0060A13010039060A4E475F0011208DF023B
:10099F00062D2009E97F2ED2098018EF540F2490DD
:1009AF00D43440D4FF300D0BEF24BFB41A005003E2
:1009BF002461FFE50E6002150E0511E511700205A9
:1009CF001030100E9060A1E475F0011208DFEF02F5
:1009DF00067302283A7403D2108003E4C210F50D97
:1009EF009060A11208F6E4F50EF510F511E50E6012
:1009FF00077F201209C280F5750FFFC20AC209C214
:100A0F000BC20CC20EC20FC21112098EFF700D3035
:100A1F0010057F001209D3AF11AE1022B4255FC2AB
:100A2F00D5C20D12098EFF24D0B40A00501A75F0EA
:100A3F000A780E30D50508B6FF0106C6A426F620A3
:100A4F00D5047002D20C80D924CFB41A00EF500411
:100A5F00C2E5D20D020CC5D20A80C6D20980C0D21F
:100A6F000B80BCD2D580BAD20E80B47F201209C2BF
:100A7F00200B077401B50E0040F112097FFF120918
:100A8F00C20209FCD211D20F809512097FFB120905
:100A9F007FFA12097FF94A4B700679C37A0D7BFFF3
:100AAF00200B2EE50E602A7E008E827583001206C3
:100ABF004660060EEE650F70F0C2D5EBC0E0EAC0DF
:100ACF00E0E9C0E0EE120D26D0E0F9D0E0FAD0E078
:100ADF00FB12062DFF60AAEBC0E0EAC0E0E9C0E020
:100AEF001209C2D0E02401F9D0E03400FAD0E0FBC3
:100AFF00E50F0460DCD50FD98087D20B80A2120DD1
:100B0F000860F7E50F70010412042EA90F600DE5C0
:100B1F000F600914F50F120DB0EF60F3EA30E70222
:100B2F00F404C3995079EAF4250F0430E701E40483
:100B3F00F50F800D120D0860C1EA050F250F120485
:100B4F002EEA9060D0F030E701E4250F04D50F04B2
:100B5F00200E0114120D26E4C0E0120DB09060D0EB
:100B6F00E0601320E70714F01209AA802204F0D0E6
:100B7F00E014C0E07F001209AAE50F60071209A177
:100B8F00150F800B300E031209A1D0E00209FCD023
:100B9F00E00480C4120D08609EE50F0412042E902D
:100BAF0060D0EAF0E50F200E026001042404120D5C
:010BBF00260F
:100BC00074FF04C0E0120DB01209AAE50F200E0256
:100BD00060031209A1D0E0B50FE87F451209B49077
:100BE00060D0E07F2B30E7047F2DF404C0E01209D1
:100BF000C2D0E075F00A84C0F01209ABD0E012094F
:100C0000AB0209FC791080027908C20FC21180087A
:100C1000D2D5790A8004790AC2D5E50F047002F5AD
:100C20000FE4FAFDFEFF12097FFC7B08200A131275
:100C3000097FFD7B1030090A12097FFE12097FFF30
:100C40007B20EC3382D592D55013C3E43009069F44
:100C5000FFE49EFEE4200A039DFDE49CFCE4CBF847
:100C6000C20AEC700CCFCECDCCE824F8F870F3803B
:100C700017C3EF33FFEE33FEED33FDEC33FCEB3304
:100C8000FB994002FB0FD8E9EB300A05F8D0E0C42D
:100C900048B20AC0E00AEC4D4E4F78207B0070C28B
:100CA000EAB50F0040BCC0E0120D28D0F0D0E02023
:100CB0000A04C4C0E0C4B20AC0F01209ABD0F0D537
:100CC000F0EB0209FC1208FF0A99530C04580A6A57
:100CD0004C0A66420C084F0C10440C10490A7F4322
:100CE0000C16550B43460BA3450B0D470DE3500A5D
:100CF0006E2D0A722E0A952B0A76230A93200DCCAC
:100D00002A0A2E4800000A8DE50FB4FF03750F066E
:100D100012097FFC12097FFD12097FFE12097FFF75
:100D20009060C902046B790AA2D5200C14300E0918
:100D3000B910020404B9080104A2D5200F02500121
:100D400004200B68920BB50E005034C0E07F2030B9
:100D50000C197F30A20B720F720E500F120D7FC252
:100D60000BC20FC20EC2117F30800F300E03E9C0DC
:100D7000E01209C2300E03D0E0F9D0E0B50ECC305D
:100D80000E177F30B9100C1209C27F58300D077F43
:100D9000788003B908031209C2300B057F2D0209C0
:100DA000C27F202011F87F2B200FF322920B80CFDF
:100DB0007F00B40700500B24C9F582E43460F5834A
:100DC000E0FF22286E756C6C2900D20A12097F3070
:100DD0000AF8C20A780E30D50108F6020A2E2D5004
:100DE00043495812097F2403B405004001E4900DE3
:100DF000DE931209B3743A1209B3D20C750E0402D1
:020E00000C04E0
:101759009060701208A2E4FFFE7D807C3F9060706B
:10176900E0F8A3E0F9A3E0FAA3E0FB1202CB7006CC
:101779009060700218B3906070E0FCA3E0FDA3E0F4
:10178900FEA3E0FF120403FBA3E0FCA3E0FDA3E03A
:10179900FEA3E0FF120403FFB40108E4FFFE7D800D
:1017A9007C3F22EF64046029EB64046024EBB401FC
:1017B90030E4FFFEFDFC906074E0F8A3E0F9A3E0DB
:1017C900FAA3E0FB1202CB60084006E4FFFEFDFC31
:1017D900229060741208AEFFFFFFFF906074021838
:1017E900B3E4906078F0A3F0FFFEFDFC906070E038
:1017F900F8A3E0F9A3E0FAA3E0FB1202CB505F9053
:101809006074E0FCA3E0FDA3E0FEA3E0FF12038205
:10181900906078EEF0A3EFF0FDCCEECCEC1203492A
:10182900C8ECC8C9EDC9CAEECACBEFCB906074E069
:10183900FCA3E0FDA3E0FEA3E0FF120030E4FBFA05
:10184900F9F81202CB708A906070E0FCA3E0FDA366
:10185900E0FEA3E0FF12041D9060701208A29060E0
:1018690070E0FCA3E0FDA3E0FEA3E0FF121A3B90A9
:101879006074E0F8A3E0F9A3E0FAA3E0FB12012504
:1018890012212F9060741208A2906079E030E0175D
:10189900906074E0FCA3E0FDA3E0FEA3E0FF120466
:1018A9001D9060741208A2906074E0FCA3E0FDA38F
:0618B900E0FEA3E0FF22A7
:1003B900E9D2E7C933E833F892D5EDD2E7CD33EC8A
:0703C90033FC5002B2D52203
:1003D000EC30E7100FBF000C0EBE00080DBD00048E
:1003E0000BEB6014A2D5EB13FCED92E7FD2274FF3A
:1003F000FCFDFEFF22E480F8A2D574FF13FC7D8093
:03040000E480EFA6
:10040300ED33EC33601004700FED547F700574020C
:0A04130092E0227404220422E42285
:10041D00ED33EC33600A047003BD8004ECB2E7FCED
:01042D0022AC
:10042E00F920E73624F950037907E4F42402FBE5BA
:10043E0082158270021583DBF6E024FB501BE96007
:10044E0014E4F0E582158270021583E004F0B40A1C
:0D045E0008E4F0D9EE7401F00A22C2D522A4
:10046B00ED33EC3392D5FA602AB4FF33EDC2E77B60
:10047B00FF60067A047990E4227A04799920D504F6
:10048B007A047994224E614E002B494E46002D4939
:10049B004E4600E47A08F0A3DAFC7B00740722C016
:1004AB0083C082ECC0E0EDC0E0EEC0E0EFC0E0EA5C
:1004BB0075F010A4CAABF075F04DA42BFBE435F02E
:1004CB00FCEA2410FAEB34C5FBEC34D9FCEDC2E7A3
:1004DB00FF75F056A4F42411C5F0F434C58FF0A4C5
:1004EB002AE5F03BE43CF020E7141205A0D0E0FF36
:1004FB00D0E0FED0E0FDD0E0FC12022E8014F4041C
:10050B001205A0D0E0FFD0E0FED0E0FDD0E0FC1261
:10051B000125D082D083E0FAEDD2E7CD33EC332442
:10052B0082FBE4C3CF33CFCE33CECD33CD33DBF32E
:10053B007B0775F00A846004F0A31B0AE5F0F0A3B7
:10054B008FF0740AA4FFACF08EF0740AA42CFEACEE
:10055B00F050010C8DF0740AA42CFDE435F0F0A3DF
:05056B00DBDE74072235
:1020F70033DA929E35B16011377FE5FE3921848945
:102107003AAEC3FF3C1D955B3D6358473E75FDF0F6
:102117003F3172183F800000C2D50203F80203EE78
:10212700BD80FA50F30203F5ED33EC330460F17B25
:102137003B7AAA79B8783F120125ED33EC3392D573
:10214700247B5011A2D570DB500BED448024045042
:1021570004A2D580CEEFFBEEFAEDF9ECF81203827C
:10216700EFF582F404FC12034E120034C082902073
:10217700F774091205EFED33CC33D0F092D525F083
:0A218700A2D57001C313CC13FD2292
:101A07003E9248DA3ECCCCCD3F2AAAAB400000003C
:101A17003F8000003F9837F03FB504F33FD744FCC1
:101A27003E3172173EB172173F0515913EDE5BD905
:101A3700D2008002C200EDD2E7F8CD33EC33047058
:101A47000BBD800592D50203F80203EE40FBD314C9
:101A570060F2F5F07C3FEE7A00C39496C8948B4011
:101A6700230AC89469C8941A401A0AC89468C89483
:101A77001F40110AC8945AC89425400805F07A00F7
:101A8700CDC2E7CDC0F090607A1208A2EA2323C046
:101A9700E02417F582E4341AF58312089212003411
:101AA700ECC0E0EDC0E0EEC0E0EFC0E012087690D9
:101AB700607A120886120030D0E0FBD0E0FAD0E05E
:101AC700F9D0E0B2E7F812022E90607A1208A290DD
:101AD7001A0774031205E090607A1208861201252E
:101AE700D0E0600F2423F582E4341AF583120892BC
:101AF70012003490607A1208A2D0E0C3947FFDE40C
:101B07009400FC1203497B187A727931783F1201ED
:101B17002590607A12088612003430000B7BD97A40
:091B27005B79DE783E12012522F3
:100570003F8000004120000042C80000447A000093
:10058000461C400047C35000497424004B18968015
:100590004CBEBC205A0E1BCA6753C21C749DC5AE0C
:1005A000FB60065407601C23231205CEEB54386011
:1005B000091205BA1205C9120125ECF8EDF9EEFA97
:1005C000EFCB22EB1205C980F1543803241C9005AF
:1005D00070FE93FC0EEE93FD0EEE930ECE93FF2273
:1005E000C0E0EFFBEEFAEDF9ECF8120125D0E0F5F2
:1005F000F0EFFBEEFAEDF9ECF8120876A3A3A3A353
:10060000E8C0E0E9C0E0EAC0E0EBC0E0C0F0120101
:1006100025120892A3A3A3A3120034D0F0D0E0FBCC
:0D062000D0E0FAD0E0F9D0E0F8D5F0D42217
:102231000224BAE493A3F8E493A34003F68001F2E5
:1022410008DFF48029E493A3F85407240CC8C333AE
:10225100C4540F4420C8834004F456800146F6DF7D
:10226100E4800B0102040810204080901FAFE47E3F
:10227100019360BCA3FF543F30E509541FFEE49372
:10228100A360010ECF54C025E060A840B8E493A339
:10229100FAE493A3F8E493A3C8C582C8CAC583CA64
:1022A100F0A3C8C582C8CAC583CADFE9DEE780BE1C
:01205500008A
:10062D00BB010689828A83E0225002E722BBFE02CB
:09063D00E32289828A83E49322FE
:10064600BB010CE58229F582E5833AF583E0225069
:1006560006E92582F8E622BBFE06E92582F8E222B3
:0D066600E58229F582E5833AF583E49322CD
:10067300BB010689828A83F0225002F722BBFE0166
:02068300F32260
:10068500EF8DF0A4A8F0CF8CF0A428CE8DF0A42E89
:02069500FE2243
:10069700BC000BBE0029EF8DF084FFADF022E4CC47
:1006A700F875F008EF2FFFEE33FEEC33FCEE9DEC10
:1006B700984005FCEE9DFE0FD5F0E9E4CEFD22ED56
:1006C700F8F5F0EE8420D21CFEADF075F008EF2FA0
:1006D700FFED33FD4007985006D5F0F222C398FD91
:0506E7000FD5F0EA222E
:1006EC00A3F8E0C5F025F0F0E582158270021583C1
:0606FC00E0C838F0E8221E
:10070200BB0110E58229F582E5833AF583E0F5F035
:10071200A3E0225009E92582F886F008E622BBFE12
:100722000AE92582F8E2F5F008E222E5832AF58358
:08073200E993F5F0A3E993221D
:10073A00E88FF0A4CC8BF0A42CFCE98EF0A42CFC5E
:10074A008AF0EDA42CFCEA8EF0A4CDA8F08BF0A4DC
:10075A002DCC3825F0FDE98FF0A42CCD35F0FCEB3B
:10076A008EF0A4FEA9F0EB8FF0A4CFC5F02ECD3900
:0F077A00FEE43CFCEAA42DCE35F0FDE43CFC226D
:1007890075F008758200EF2FFFEE33FECD33CDCC27
:1007990033CCC58233C5829BED9AEC99E5829840AA
:1007A9000CF582EE9BFEED9AFDEC99FC0FD5F0D687
:1007B900E4CEFBE4CDFAE4CCF9A88222B800C1B9B1
:1007C9000059BA002DEC8BF084CFCECDFCE5F0CBEF
:1007D900F97818EF2FFFEE33FEED33FDEC33FCEB28
:1007E90033FB10D703994004EB99FB0FD8E5E4F9E3
:1007F900FA227818EF2FFFEE33FEED33FDEC33FCD0
:10080900C933C910D7059BE99A4007EC9BFCE99AC3
:10081900F90FD8E0E4C9FAE4CCFB2275F010EF2F08
:10082900FFEE33FEED33FDCC33CCC833C810D70708
:100839009BEC9AE899400AED9BFDEC9AFCE899F843
:0E0849000FD5F0DAE4CDFBE4CCFAE4C8F922D6
:0E085700C3E49FFFE49EFEE49DFDE49CFC22B2
:10086500EB9FF5F0EA9E42F0E99D42F0E89C45F0E9
:010875002260
:10087600E493FC740193FD740293FE740393FF22C8
:0C088600E0F8A3E0F9A3E0FAA3E0FB22F5
:10089200E493F8740193F9740293FA740393FB22BC
:0C08A200ECF0A3EDF0A3EEF0A3EFF022C9
:1008AE00A8828583F0D083D0821208C51208C512A3
:1008BE0008C51208C5E473E493A3C583C5F0C583C8
:1008CE00C8C582C8F0A3C583C5F0C583C8C582C894
:0108DE0022F7
:1008DF00F8E0FBA3A3E0F925F0F0E58215827002A2
:0708EF001583E0FA38F02246
:0908F600EBF0A3EAF0A3E9F02203
:1008FF00D083D082F8E4937012740193700DA3A388
:10090F0093F8740193F5828883E47374029368609B
:06091F00EFA3A3A380DF9B
:10092500D083D082F8E4937012740193700DA3A361
:1009350093F8740193F5828883E473740293B5F098
:0D094500067403936860E9A3A3A3A380D800
:10095200EC8EF0A4CCC5F0CCCDF8EFA4CEC5F02D32
:10096200FDE43CFCE8A42EC8C5F03DFDE43CFCEFF0
:0D097200A4FFE5F028FEE43DFDE43CFC227E
:00000001FF
