:03000000022220B9
:0C222000787FE4F6D8FD75812202226769
:0C000300000000000000000000000000F1
:0B001200EF1FAC0670011E4C70F622C0
:10281600AB07AA06EB1BAE0270011A4E60097FAA2F
:082826007E0512001280ED2274
:101D4D00907120E04480F07F057E00120012E4FFC8
:101D5D00FE12281675A75575AC589071327450F057
:101D6D009071307403F0907136742FF07F18EF245A
:101D7D0066FDE434718D82F583E4F00FEFB433EE3C
:101D8D00904011E4935407FF90711CE054F84FF00C
:101D9D00904017E493547FFF90711DE054804FF0F5
:101DAD00904010E493FF5401C43333335480FE90BC
:101DBD007123E0547F4EF0EFC313543F4440FFA313
:101DCD00E054804FF0904012E493FF540FFE907159
:101DDD0046E054F04EF0EFC4540FFF90714FE054B5
:101DED00F04FF0904013E493543FFF907140E05456
:101DFD00C04FF0904014E493907126F0904015E49C
:0E1E0D0093907128F0904016E49390712AF0A3
:011E1B0022A4
:10265C0054583843313236785F53444B206D61699E
:10266C006E2073746172740A00616463305F76610A
:10267C006C203D2025642020616463315F76616CA1
:0A268C00203D202564200D0A2000E7
:0E282E009060CFEFF012283C9060CFE0FF22C8
:1024AE00121D4D9060E97401F07F0A7E001228160D
:1024BE001227767BFF7A26795C1226961226C9E5BC
:1024CE00B254CF441042B2E5B2543F444042B2122D
:1024DE0027951225CD122616121EEB1212BB7BFF6C
:1024EE007A2679759060D3E0FFA3E09060A2CFF0DA
:1024FE00A3EFF09060D5E0FFA3E09060A4CFF0A32F
:10250E00EFF01209EA1227B075D9AA1226F6122791
:06251E002312243680F2B6
:0D283C00E5F430E4FB8FF7E5F430E4FB2217
:10277600E490606EF078E2E254F3F2E24404F29000
:0E278600718F7403F075F60175F59F75F210F2
:012794002222
:102696009060D0EBF0A3EAF0A3E9F09060D0E0FB05
:1026A600A3E0FAA3E0F912062D60179060D0A3E428
:1026B60075F0011206ECA9F0FA12062DFF12283C5D
:0326C60080D92296
:051FAF004260E50000A6
:1027950043A820D2AF75D10178957401F2187476EB
:0B27A500F2789174A0F21874FDF2228B
:03001E000223BBFF
:1023BB00C0E0C0F0C083C082C0D075D000C000C0E8
:1023CB0001C002C003C004C005C006C00775B2A09F
:1023DB007891E230E737E24480F21227E4121EEBE9
:1023EB009060E6E004F070069060E5E004F0C390C6
:1023FB0060E6E094E89060E5E094034010E4F0A31D
:10240B00F01215F11210F6121C511222AC75B250CB
:10241B00D007D006D005D004D003D002D001D00015
:0B242B00D0D0D082D083D0F0D0E032BF
:1025CD0078567407F278277417F218746FF278330F
:1025DD00E4F218F27819E24401F27811E24401F2C2
:1025ED007817E24401F27812E24401F27814E244E1
:1025FD0001F27818E24401F278D3E254CFF2E244CA
:09260D0010F290718C740AF022A5
:0A1FB4004260E100004260E300001B
:1026C90078D3E254FCF2907172740DF043A9047549
:1026D900D11075E6FF75E7FF75DAFEE4F5DB75DC09
:0D26E9004275DD0475DF0375DE01D2AF22FE
:03002A0002258329
:10258300C0E0C083C082C0D075D000C005C007E5DD
:10259300EE30E11243E202AFE9EFFFADE8ED906008
:1025A300E3CFF0A3EFF0E5EE30E01243E201AFE753
:1025B300EFFFADE6ED9060E1CFF0A3EFF0D007D0F1
:0A25C30005D0D0D082D083D0E032E2
:1018BF006C5F7077722E656E203D20310D0A006CC3
:1018CF005F7077722E656E203D20300D0A006578AF
:1018DF005F74656D705F656E203D20300D0A006589
:1018EF00785F74656D705F656E203D20310D0A0065
:1018FF0061646A7573745F656E203D20300D0A0058
:10190F0061646A7573745F656E203D20310D0A0046
:10191F005F335F312E656E20203D20310D0A005F51
:10192F00335F312E656E20203D20300D0A00745F2D
:10193F006374726C2E656E203D20310D0A00745F4A
:10194F006374726C2E656E203D20300D0A00745F3B
:10195F006374726C2E6C697374203D2030200D0AF5
:10196F0000745F6374726C2E6C697374203D203148
:10197F000D0A2000745F6374726C2E6C697374208F
:10198F003D20320D0A2000745F6374726C2E6C69F7
:10199F007374203D20330D0A2000745F6374726CE2
:1019AF002E6C697374203D20340D0A006C76642010
:1019BF00707772206C6F77200A004C45445F505748
:1019CF00525F4F4E001770040BB8080000FF1770DE
:1019DF00051068030BB8040000FF177004106804AB
:1019EF000BB8040000FF1770040E10020708030E57
:0819FF0010021770010000FF47
:101FBE0042601000004460240000000044603800BD
:101FCE000000004460690000000042601E000042F4
:101FDE0060671770C11741606500C11549602D1704
:101FEE0070060BB8060000FF426036000041601517
:101FFE000041606D015460510000000000000000BF
:10200E000000000000000000000000004260070019
:10201E0000C112C113416046004160660041601D5F
:10202E00004460033F800000446028428C0000445E
:06203E006020000000001C
:102436009060D9E0FEA3E0FF7C007D5C120697ABBE
:1024460007AA067C007D5C120685EF242EFFE43E7B
:1024560090606EF0A3EFF030164DD39060DAE09402
:10246600609060D9E0940E40028018EB4A700B90A1
:102476006047740EF0A37410F022C3EB9428EA941C
:1024860000400B9060477417F0A37470F022AE0200
:10249600AF037C007D3C120685EF2410FFEE340E60
:0724A600906047F0A3EFF086
:0124AD00220C
:1015F10020140302175690600FE060030217563063
:101601001316906067E0FFA3E0906051CFF0A3EF65
:10161100F0E4906015F0C213C39060E0E094B890DC
:1016210060DFE0940B507990606DE064017071901F
:101631006024A3A3E0FEA3E0FF906015E0FB25E09A
:101641002451F582E43460F583EEF0A3EFF090606D
:1016510051E0FEA3E0FF7C007D0A120697EB240116
:10166100FDE433FC120685C3E09FFF906051E09ECC
:10167100FE906007F0A3EFF0E490606DF0906036AB
:10168100F0A3F0906067EEF0A3EFF0906015E00436
:10169100F0E0D394094007E4906067F0A3F0D21220
:1016A100D39060E0E094B89060DFE0940B500302C7
:1016B1001730E4906015F030127590606DE06401B0
:1016C100706D20135D30161D906016E0B401079017
:1016D1006038A3A38003906047E0FFA3E0906067B8
:1016E100CFF0A3EFF020161D906016E0B401079033
:1016F1006069A3A38003906051E0FFA3E09060675D
:10170100CFF0A3EFF020801A90601EE0FEA3E0FF6F
:10171100D3906068E09F906067E09E4005EEF0A383
:10172100EFF030130AC213C212E4906015F0229058
:101731006037E004F07006906036E004F0906036A7
:10174100E0B40711A3E0B4080CE4906036F0A3F014
:0817510090606D04F0D2152236
:10274E00906010E0FEA3E0FFC374709F90606FF086
:10275E0074179E90606EF0EE7833F2906011E01870
:07276E00F27817E24401F2CA
:012775002241
:1027E400906000E0C3940A5003E004F090602CE091
:0927F40004F0906046E004F022BC
:1026F600906000E0C3940A4012E4F0906016E0B4E3
:10270600010312146E121B30121E1C906046E0B4B8
:0D2716000308E4F012218C122051020E0283
:10146E009060E3E0FAA3E0FB4A70269060E1E07042
:10147E0002A3E0701C20940A9060241208AE0000B3
:10148E0000003094529060241208AE000017708055
:10149E0046EB2401FFE43AFE7C177D701209529050
:1014AE0060241208A2906024E0FCA3E0FDA3E0FEFD
:1014BE00A3E0FFC006C0079060E2E02401FF906049
:1014CE00E1E03400AB07FAE4F9F8D007D0061207D2
:1014DE00C59060241208A2E49060E3F0A3F090603F
:1014EE00E1F0A3F0906024A3A3E0FEA3E0FF9060E0
:1014FE0066E025E0243CF582E43460F583EEF0A34B
:10150E00EFF0906066E004F0E0B4050B90601D749F
:10151E0001F0E4906066F090601DE06401706D90E3
:10152E0060241208AE00000000E490606EF090603F
:10153E0024E0F8A3E0F9A3E0FAA3E0FB90606EE0EC
:10154E0025E0243CF582E43460F583E0FEA3E0FF61
:10155E00E4FCFDEB2FFFEA3EFEED39FDEC38FC908E
:10156E0060241208A290606EE004F0E0B405BF9013
:10157E006024E0FCA3E0FDA3E0FEA3E0FFE47B0516
:10158E00FAF9F81207C59060241208A2301640909E
:10159E006047E0FEA3E0FFE4FCFD906024E0F8A3CA
:1015AE00E0F9A3E0FAA3E0FB12073AE47B707A17A6
:1015BE00F9F81207C59060381208A2906038E0FC66
:1015CE00A3E0FDA3E0FEA3E0FF9060241208A2902A
:1015DE006024E0FCA3E0FDA3E0FEA3E0FF906069C1
:0315EE000208A24E
:101E1C009060E9E064017003021EEAE47F0AFEFDB3
:101E2C00FC906024E0F8A3E0F9A3E0FAA3E0FBD374
:101E3C00120865405F906024E0FCA3E0FDA3E0FE87
:101E4C00A3E024F6FBEE34FFFAED34FFF9EC34FF9B
:101E5C00F8906010E0FEA3E0FFE4FCFDD3120865EF
:101E6C0040069060E97402F0906024E0FCA3E0FD71
:101E7C00A3E0FEA3E0240AFBE43EFAE43DF9E43CD3
:101E8C00F8906010E0FEA3E0FFE4FCFDC3120865CF
:101E9C00504C8044906010E0FEA3E0FFE4FCFD9009
:101EAC006024E0F8A3E0F9A3E0FAA3E0FBD3120866
:101EBC006540069060E97402F0906010E0FEA3E0CB
:101ECC00FFE4FCFD906024E0F8A3E0F9A3E0FAA3A2
:0F1EDC00E0FBC312086550069060E97403F02222
:100E02009060E9E0640160030210F590601DE06407
:100E12000160030210F5301603020F7A906016E0AB
:100E22007011906067E0FEA3E0FFE4FCFD90602497
:100E32001208A2E4FBFA79407841906028E0FCA312
:100E4200E0FDA3E0FEA3E0FF12022E906020120854
:100E5200A2E4FFFE7D807C3F906020E0F8A3E0F9F1
:100E6200A3E0FAA3E0FB1202CB500A906020120822
:100E7200AE4120000090602CE0FCE412034E906032
:100E820020E0F8A3E0F9A3E0FAA3E0FB1202CB60B2
:100E92000540030210F5E490602CF0906010E0FE33
:100EA200A3E0FFE4FCFD906024E0F8A3E0F9A3E0F6
:100EB200FAA3E0FBD31208655003020F42E4FFFEDF
:100EC2007D807CBF906028E0F8A3E0F9A3E0FAA35C
:100ED200E0FB120034E4FBFA79A8784212022EE415
:100EE200FBFA798078BF1200349060491208A29010
:100EF2006028E0FCA3E0FDA3E0FEA3E0FFE4FBFA30
:100F0200F9783F1200349060281208A2906049E0FC
:100F1200FCA3E0FDA3E0FEA3E0FF9060721208A232
:100F22007F007E007DA07C40121759E4FBFA7970A5
:100F32007842120125120382906010EEF0A3EFF0C6
:100F4200906010E0FEA3E0FFE4FCFD906024E0F876
:100F5200A3E0F9A3E0FAA3E0FBD3120865501690D0
:100F62006024A3A3E0FFA3E0906010CFF0A3EFF012
:100F7200E49060E9F012274E2016030210F590600B
:100F820016E0FB7011906047E0FEA3E0FFE4FCFD79
:100F92009060241208A2EBB40114906038E0FCA324
:100FA200E0FDA3E0FEA3E0FF9060241208A2E4FBB0
:100FB200FA79407841906028E0FCA3E0FDA3E0FECE
:100FC200A3E0FF12022E9060201208A2E4FFFE7D31
:100FD200807C3F906020E0F8A3E0F9A3E0FAA3E070
:100FE200FB1202CB500A9060201208AE4120000092
:100FF20090602CE0FCE412034E906020E0F8A3E045
:10100200F9A3E0FAA3E0FB1202CB60054003021051
:10101200F5E490602CF0906010E0FEA3E0FFE4FCA9
:10102200FD906024E0F8A3E0F9A3E0FAA3E0FBD38B
:1010320012086550030210BDE4FFFE7D807CBF9064
:101042006028E0F8A3E0F9A3E0FAA3E0FB12003481
:10105200E4FBFA79A8784212022EE4FBFA7980784E
:10106200BF1200349060491208A2906028E0FCA3ED
:10107200E0FDA3E0FEA3E0FFE4FBFAF9783F1200F3
:10108200349060281208A2906049E0FCA3E0FDA31E
:10109200E0FEA3E0FF9060721208A27F007E007D56
:1010A200A07C40121759E4FBFA79707842120125AC
:1010B200120382906010EEF0A3EFF0906010E0FE59
:1010C200A3E0FFE4FCFD906024E0F8A3E0F9A3E0D4
:1010D200FAA3E0FBD31208655016906024A3A3E0A4
:1010E200FFA3E0906010CFF0A3EFF0E49060E9F08E
:0410F20012274E2251
:10218C009060E9E06402600302221F906010E0FEA0
:10219C00A3E0FFE4FCFD906024E0F8A3E0F9A3E0E9
:1021AC00FAA3E0FBD31208654021301510906011A2
:1021BC00E004F07016906010E004F0800E90601156
:1021CC00E0240AF0906010E03400F0906010E0FE23
:1021DC00A3E0FFE4FCFD906024E0F8A3E0F9A3E0A9
:1021EC00FAA3E0FBD31208655026906024A3A3E069
:1021FC00FEA3E0FF906010EEF0A3EFF0E49060E936
:10220C00F0AD07AC061203499060031208A2C21588
:04221C0012274E2215
:102051009060E9E0640360030220F1906010E0FE0B
:10206100A3E0FFE4FCFD906024E0F8A3E0F9A3E025
:10207100FAA3E0FBC3120865502E301508906011D9
:10208100E024FF801BD3906011E09432906010E057
:1020910094004006A3E024F68006906011E024FF3E
:1020A100F0906010E034FFF0906010E0FEA3E0FFDC
:1020B100E4FCFD906024E0F8A3E0F9A3E0FAA3E0DA
:1020C100FBC31208654026906024A3A3E0FEA3E0B1
:1020D100FF906010EEF0A3EFF0FDAC06E4120349AF
:1020E1009060031208A2C215E49060E9F012274E35
:0120F10022CC
:1012BB0012252478D2E2543FF278D0E24408F208A7
:1012CB00E24408F208E254CFF278D0E24404F27818
:1012DB00D2E254F3F278D0E24402F278C2E254FC48
:1012EB00F278C0E24401F278C2E254CFF278C0E265
:1012FB004404F278C2E2543FF278C0E24408F22090
:10130B00800E9060177401F07BFF7A1879BF800B09
:10131B00E4906017F07BFF7A1879CE1209EAD3902C
:10132B0060D4E094A09060D3E0940F400AC2147B89
:10133B00FF7A1879DD8008D2147BFF7A1879EE12C8
:10134B0009EAD39060D6E094A09060D5E0940F406A
:10135B000AC2167BFF7A1879FF8008D2167BFF7AB8
:10136B0019790F1209EA30820E9060167401F07B26
:10137B00FF7A19791F8010E4906016F090601D04BD
:10138B00F07BFF7A19792E1209EA20830E90600FF9
:10139B007401F07BFF7A19793D800BE490600FF0BC
:1013AB007BFF7A19794D1209EA30932130921E3066
:1013BB00911BE490600EF090601204F0A37460F047
:1013CB00A3742DF07BFF7A19795D02146A209322A6
:1013DB0030921F30911C90600E7401F0906012746B
:1013EB00FFF0A37419F0A374D4F07BFF7A19797012
:1013FB00806D30932220921F30911C90600E7402EE
:10140B00F090601274FFF0A37419F0A374DDF07BFD
:10141B00FF7A197983804830932230921F20911CD8
:10142B0090600E7403F090601274FFF0A37419F0C7
:10143B00A374E9F07BFF7A197996802320932320FC
:10144B00922030911D90600E7404F090601274FF26
:10145B00F0A37419F0A374F5F07BFF7A1979A91234
:03146B0009EA2269
:101C5100906017E064016003021D4C7F107E0EFD51
:101C6100FC906019E0F8A3E0F9A3E0FAA3E0FBC35C
:101C7100120865501F906019E0FCA3E0FDA3E0FE8F
:101C8100A3E02401FFE43EFEE43DFDE43CFC906062
:101C9100190208A2D213301661906016E064017037
:101CA1002E906047E0FEA3E0FF7C007D6412069762
:101CB1007C007D4B120685E4FD906038E0F8A3E0DE
:101CC100F9A3E0FAA3E0FBD3120865402D80009050
:101CD1006047E0FEA3E0FF7C007D641206977C0074
:101CE1007D4B120685906067EEF0A3EFF0906018CF
:101CF1007401F0E4906017F0D21520163A90601646
:101D0100E0601DE47F947E11FDFC906024E0F8A367
:101D1100E0F9A3E0FAA3E0FBD312086540198000C3
:101D21009060677411F0A37494F09060187401F0DE
:101D3100E4906017F0D215E4906017F0906067E0CE
:0C1D4100FFA3E090601ECFF0A3EFF022A3
:101B300090600FE0FB702B301628906016E0B40127
:101B400010906038E0FCA3E0FDA3E0FEA3E0FF807E
:101B50000B906047E0FEA3E0FFE4FCFD90602412E0
:101B600008A2906018E064016005EB6401707A30AF
:101B70001647906016E0B40140906067E0FEA3E075
:101B8000FFE4FCFD906038E0F8A3E0F9A3E0FAA3DD
:101B9000E0FBD31208654011906067E0FEA3E0FF10
:101BA000E4FCFD9060381208A2906038E0FCA3E0ED
:101BB000FDA3E0FEA3E0FF802A906067E0FEA3E0C3
:101BC000FFE4FCFD906024E0F8A3E0F9A3E0FAA3B1
:101BD000E0FBD31208654011906067E0FEA3E0FFD0
:101BE000E4FCFD9060241208A230146490600FE0C1
:101BF000705E201617906016E07011906067E0FE2E
:101C0000A3E0FFE4FCFD9060241208A2906067E06E
:101C1000FEA3E0FFE4FCFD906024E0F8A3E0F9A35C
:101C2000E0FAA3E0FBD31208654011906067E0FE84
:101C3000A3E0FFE4FCFD9060241208A2906067E03E
:101C40007002A3E0700A9060241208AE0000000049
:011C50002271
:1010F60090600FE0640160030212BA90600DE07523
:10110600F003A4FF906012E0FBA3E0FAA3E02FF93E
:10111600EA35F0FA900002120646F470030212BA9B
:10112600906009E0FCA3E0FDA3E0FEA3E02401FF3C
:10113600E43EFEE43DFDE43CFC9060091208A2900A
:10114600600DE075F003A4FF906012E0FBA3E0FAE7
:10115600A3E02FF9EA35F0FA900002120646FE7572
:10116600F00EA4CE75F010A4FFE5F02EFEE4FCFD13
:10117600906009E0F8A3E0F9A3E0FAA3E0FBC3124C
:10118600086550030212BA90600DE004F0D2159083
:1011960060091208AE00000000906012E0FBA3E0B8
:1011A600FAA3E0F990600DE075F003A4F58285F0EE
:1011B60083120702FF906067E5F0F0A3EFF0D21309
:1011C600201603021251906067E0FEA3E08EF01233
:1011D60009251233070812230BB8120E0E1011F947
:1011E600106811F0177000001251906047E0FFA3DD
:1011F600E08034906047E0FEA3E0FF7C007D0A12A9
:1012060006977C007D078038906047E0FEA3E0FFEC
:101216007C007D0A1206977C007D0680239060473D
:10122600E0C313FFA3E013906067CF801A90604776
:10123600E0FEA3E0FF7C007D0A1206977C007D039A
:10124600120685906067EEF0A3EFF0906016E0B4AA
:10125600013730143490600FE0702E906067E0FE26
:10126600A3E0FFE4FCFDA3E0F8A3E0F9A3E0FAA302
:10127600E0FBC31208655011906069A3A3E0FFA3C9
:10128600E0906067CFF0A3EFF0906067E0FAA3E02C
:10129600FBFFAE02E4FCFD9060241208A230161497
:1012A600906016E0B4010DAF03AE02E4FCFD906061
:0512B600381208A2221D
:1022AC002017030223377BFF7A1979BB12269690ED
:1022BC006065E004F0E0C394054070E49060E7F0E2
:1022CC00906065F0C217906010F0A3F09060677496
:1022DC0017F0A37470F0E490600EF090600912088F
:1022EC00AE00000000E490600FF090600DF0906084
:1022FC0017F0A3F0A31208AE00000000E4906016E3
:10230C00F09060241208AE00000000C214C21690B7
:10231C0060031208AE400000001212BB9060E9741A
:0C232C0001F07BFF7A1979C91209EA223E
:10252400E49060E7F0906065F0C217906010F0A34B
:10253400F09060677417F0A37470F0E490600EF08C
:102544009060091208AE00000000E490600FF09063
:10255400600DF0906017F0A3F0A31208AE00000025
:1025640000E4906016F09060241208AE00000000B1
:0F257400C214C2169060031208AE40000000228D
:1027FD006C7664330A006C7664340A006C7664205F
:09280D00707772206F6E200A0042
:042044004160E8000F
:03000F0002233891
:10233800C0E0C0F0C083C082C0D075D000C000C06B
:1023480001C002C003C004C005C006C00775B2A022
:1023580090715BE030E410E04410F09060E77401A5
:10236800F0A3E0FF12283C9060E8E0B4031190600D
:10237800E77403F0D2177BFF7A2779FD122696902F
:1023880060E8E0B4040F9060E77404F07BFF7A28FB
:10239800790312269675B250D007D006D005D0041E
:1023A800D003D002D001D000D0D0D082D083D0F0DA
:0323B800D0E03240
:1027B00043A801D2AF90715AE05442F0E04495F042
:0A27C000A3E0F09060E87403F0223B
:1027CA0043A801D2AF90715AE05442F0E0449DF020
:0A27DA00A3E0F09060E87404F02220
:102723009060E7E0B4041AE4F07F0AFE12281690E2
:1027330060E7E0700C7BFF7A28790912269612274E
:0B274300B09060E7E0B40302D2172260
:082048004160DD004160DE0093
:1026160078E2E244C0F278F2E24403F278E0E2447F
:1026260080F208E2F278F0E24401F208E2F29071F8
:1026360023E054D8F0E0441EF09071227407F07540
:1026460099177869E24448F2759A18E24450F27F85
:06265600017E00022816BF
:101EEB007869E24401F2786BE230E1FA7402F2AF06
:101EFB0093EF75F010A4FFE594C4540FFDEF4DFF65
:101F0B009060D3E5F0F0A3EFF07869E24402F27849
:101F1B006BE230E2FA7404F2AF95EF75F010A4FFA8
:101F2B00E596C4540FFDEF4DFF9060D5E5F0F0A39F
:101F3B00EFF09060D3E0FEA3E0FF9060D8E02FF0CD
:101F4B009060D7E03EF09060D5E0FEA3E0FF90609C
:101F5B00DCE02FF09060DBE03EF09060DDE004F021
:101F6B00E0B40A3F9060D7E0FEA3E0FF7C007D0A5F
:101F7B001206979060DFEEF0A3EFF09060DBE0FECF
:101F8B00A3E0FF7C007D0A1206979060D9EEF0A3C8
:101F9B00EFF0E49060DDF09060D7F0A3F09060DBA1
:041FAB00F0A3F0228D
:10002D000203EEE86480F8E933E83360110460F010
:10003D00ED33EC337009E8FCE9FDEAFEEBFF220439
:10004D0060DED3EB9FEA9EE99DE8C2E78CF0C2F734
:10005D0095F0400CE8CCF8E9CDF9EACEFAEBCFFB00
:10006D001203B985D0F05804700320D5B3E804709D
:10007D00075002B2D50203F892D5EC0460F7E4CC38
:10008D00C0E0C398F8603B94186008400DD0E0FBC9
:10009D000203D0E4FBFAC9FC8028E830E406E4C989
:1000AD00FBE4CAFCE830E305E4C9CACBFCE854071D
:1000BD006010F8C3E913F9EA13FAEB13FBEC13FC28
:1000CD00D8F130F52FC3E49CFCEF9BFFEE9AFEEDCB
:1000DD0099FDD0E0FBEF4E4D4C701222DB03020375
:1000ED00F5EC2CFCEF33FFEE33FEED33FDED30E799
:1000FD00EB0203D0EF2BFFEE3AFEED39FDD0E0FB26
:10010D0050130BBB00030203F8ED13FDEE13FEEFCE
:08011D0013FFEC13FC0203D0F8
:10012500EC4D6011E8497017ED33EC3304600DE4D4
:10013500FCFFFEFD22E933E8330470F80203EE12FA
:1001450003B958046009E4CC2481500628500902FB
:1001550003F82840030203F5C0E0EB4A7044B98078
:1001650006D0E0FB0203E4EF4E701CBD8008EBFFF8
:10017500EAFEE9FD80EBE98DF0A4FEE5F002020E52
:10018500E9CDF9EAFEEBFFEF89F0A4FCE5F0CE89B5
:10019500F0A42EFFE435F0CD89F0A42DFEE435F072
:1001A5008067EF4E7005BD80D780C3EF8BF0A4ACA0
:1001B500F0EE8BF0A42CFCE435F0F8EF8AF0A42CDB
:1001C500E5F038FCE433CB8DF0A42CFCE5F03BF8EE
:1001D500EE8AF0A42CFCE5F038F8E433CF89F0A4DE
:1001E5002CFCE5F038CF3400CE89F0A42FFFE5F0E4
:1001F5003EFEE433C98DF0A42EFEE5F039CD8AF03C
:10020500A42FFFE5F03EFEE43DFD33D0E0FB5007B3
:100215000BBB000F0203F8EC2CFCEF33FFEE33FEB3
:06022500ED33FD0203D0E1
:10022B000203F8EC5D046005E8590470030203EE69
:10023B001203B9580460F6EC4860F2EC7004FDFE52
:10024B00FF22C860DB2481C85009C39860025006A6
:10025B000203F59850CAF582E9294B4A7005AB8227
:10026B000203E475F0007C1A7880C3EF9BEE9AEDE5
:10027B0099400DC3EF9BFFEE9AFEED99FDE842F01E
:10028B00DC23ACF0D0E0FFD0E0FED0E0FDAB822071
:10029B00E7101BEB60BAEC2CFCEF33FFEE33FEEDFB
:1002AB0033FD0203D0E803F830E705C0F075F0002A
:1002BB00EF2FFFEE33FEED33FD40B830E7C280AADF
:1002CB0074F8CC6480CCC86480C8F58204604FC3DA
:1002DB00EB9FF5F0EA9E42F0E99D42F0E89C45F079
:1002EB00603C501DE5825FFFE582D313CB5BCBF403
:1002FB002B5582FB50280ABA002409B9002008802C
:10030B001DE5825BFBE582D313CF5FCFF4C3132FC5
:10031B005582FF50090EBE00050DBD00010CC3EB4D
:10032B009FF5F0EA9E42F0E99D42F0E89C45F060B3
:09033B0007CC4820E701B3EC22D5
:1003440075F020800E75F010800575F0087D007E34
:10035400007F003392D530D503120857EC33401098
:10036400EF33FFEE33FEED33FDEC33FCD5F0ED223D
:0E037400E5F0247EA2D513CC92E7CDCEFF2279
:10038200EDD2E7CD33EC3392D524814006E4FFFE73
:10039200FDFC22FCE4CFCECDCC24E0501174FF80D2
:1003A200EDC3CC13CCCD13CDCE13CECF13CF04706F
:0703B200F030D5DE02085710
:10097F00E50D24A2F582E43460F583E0050D2290A5
:10098F00609F3010039060A2E475F0011208DF023F
:10099F00062D2009E97F2ED2098018EF540F2490DD
:1009AF00D43440D4FF300D0BEF24BFB41A005003E2
:1009BF002461FFE50E6002150E0511E511700205A9
:1009CF001030100E90609FE475F0011208DFEF02F7
:1009DF00067302282E7403D2108003E4C210F50DA3
:1009EF0090609F1208F6E4F50EF510F511E50E6014
:1009FF00077F201209C280F5750FFFC20AC209C214
:100A0F000BC20CC20EC20FC21112098EFF700D3035
:100A1F0010057F001209D3AF11AE1022B4255FC2AB
:100A2F00D5C20D12098EFF24D0B40A00501A75F0EA
:100A3F000A780E30D50508B6FF0106C6A426F620A3
:100A4F00D5047002D20C80D924CFB41A00EF500411
:100A5F00C2E5D20D020CC5D20A80C6D20980C0D21F
:100A6F000B80BCD2D580BAD20E80B47F201209C2BF
:100A7F00200B077401B50E0040F112097FFF120918
:100A8F00C20209FCD211D20F809512097FFB120905
:100A9F007FFA12097FF94A4B700679C37A0D7BFFF3
:100AAF00200B2EE50E602A7E008E827583001206C3
:100ABF004660060EEE650F70F0C2D5EBC0E0EAC0DF
:100ACF00E0E9C0E0EE120D26D0E0F9D0E0FAD0E078
:100ADF00FB12062DFF60AAEBC0E0EAC0E0E9C0E020
:100AEF001209C2D0E02401F9D0E03400FAD0E0FBC3
:100AFF00E50F0460DCD50FD98087D20B80A2120DD1
:100B0F000860F7E50F70010412042EA90F600DE5C0
:100B1F000F600914F50F120DB0EF60F3EA30E70222
:100B2F00F404C3995079EAF4250F0430E701E40483
:100B3F00F50F800D120D0860C1EA050F250F120485
:100B4F002EEA9060CEF030E701E4250F04D50F04B4
:100B5F00200E0114120D26E4C0E0120DB09060CEED
:100B6F00E0601320E70714F01209AA802204F0D0E6
:100B7F00E014C0E07F001209AAE50F60071209A177
:100B8F00150F800B300E031209A1D0E00209FCD023
:100B9F00E00480C4120D08609EE50F0412042E902D
:100BAF0060CEEAF0E50F200E026001042404120D5E
:010BBF00260F
:100BC00074FF04C0E0120DB01209AAE50F200E0256
:100BD00060031209A1D0E0B50FE87F451209B49077
:100BE00060CEE07F2B30E7047F2DF404C0E01209D3
:100BF000C2D0E075F00A84C0F01209ABD0E012094F
:100C0000AB0209FC791080027908C20FC21180087A
:100C1000D2D5790A8004790AC2D5E50F047002F5AD
:100C20000FE4FAFDFEFF12097FFC7B08200A131275
:100C3000097FFD7B1030090A12097FFE12097FFF30
:100C40007B20EC3382D592D55013C3E43009069F44
:100C5000FFE49EFEE4200A039DFDE49CFCE4CBF847
:100C6000C20AEC700CCFCECDCCE824F8F870F3803B
:100C700017C3EF33FFEE33FEED33FDEC33FCEB3304
:100C8000FB994002FB0FD8E9EB300A05F8D0E0C42D
:100C900048B20AC0E00AEC4D4E4F78207B0070C28B
:100CA000EAB50F0040BCC0E0120D28D0F0D0E02023
:100CB0000A04C4C0E0C4B20AC0F01209ABD0F0D537
:100CC000F0EB0209FC1208FF0A99530C04580A6A57
:100CD0004C0A66420C084F0C10440C10490A7F4322
:100CE0000C16550B43460BA3450B0D470DE3500A5D
:100CF0006E2D0A722E0A952B0A76230A93200DCCAC
:100D00002A0A2E4800000A8DE50FB4FF03750F066E
:100D100012097FFC12097FFD12097FFE12097FFF75
:100D20009060C702046B790AA2D5200C14300E091A
:100D3000B910020404B9080104A2D5200F02500121
:100D400004200B68920BB50E005034C0E07F2030B9
:100D50000C197F30A20B720F720E500F120D7FC252
:100D60000BC20FC20EC2117F30800F300E03E9C0DC
:100D7000E01209C2300E03D0E0F9D0E0B50ECC305D
:100D80000E177F30B9100C1209C27F58300D077F43
:100D9000788003B908031209C2300B057F2D0209C0
:100DA000C27F202011F87F2B200FF322920B80CFDF
:100DB0007F00B40700500B24C7F582E43460F5834C
:100DC000E0FF22286E756C6C2900D20A12097F3070
:100DD0000AF8C20A780E30D50108F6020A2E2D5004
:100DE00043495812097F2403B405004001E4900DE3
:100DF000DE931209B3743A1209B3D20C750E0402D1
:020E00000C04E0
:1017590090606E1208A2E4FFFE7D807C3F90606E6F
:10176900E0F8A3E0F9A3E0FAA3E0FB1202CB7006CC
:1017790090606E0218B390606EE0FCA3E0FDA3E0F8
:10178900FEA3E0FF120403FBA3E0FCA3E0FDA3E03A
:10179900FEA3E0FF120403FFB40108E4FFFE7D800D
:1017A9007C3F22EF64046029EB64046024EBB401FC
:1017B90030E4FFFEFDFC906072E0F8A3E0F9A3E0DD
:1017C900FAA3E0FB1202CB60084006E4FFFEFDFC31
:1017D900229060721208AEFFFFFFFF90607202183C
:1017E900B3E4906076F0A3F0FFFEFDFC90606EE03C
:1017F900F8A3E0F9A3E0FAA3E0FB1202CB505F9053
:101809006072E0FCA3E0FDA3E0FEA3E0FF12038207
:10181900906076EEF0A3EFF0FDCCEECCEC1203492C
:10182900C8ECC8C9EDC9CAEECACBEFCB906072E06B
:10183900FCA3E0FDA3E0FEA3E0FF120030E4FBFA05
:10184900F9F81202CB708A90606EE0FCA3E0FDA368
:10185900E0FEA3E0FF12041D90606E1208A29060E2
:101869006EE0FCA3E0FDA3E0FEA3E0FF121A3B90AB
:101879006072E0F8A3E0F9A3E0FAA3E0FB12012506
:1018890012212A9060721208A2906077E030E01766
:10189900906072E0FCA3E0FDA3E0FEA3E0FF120468
:1018A9001D9060721208A2906072E0FCA3E0FDA393
:0618B900E0FEA3E0FF22A7
:1003B900E9D2E7C933E833F892D5EDD2E7CD33EC8A
:0703C90033FC5002B2D52203
:1003D000EC30E7100FBF000C0EBE00080DBD00048E
:1003E0000BEB6014A2D5EB13FCED92E7FD2274FF3A
:1003F000FCFDFEFF22E480F8A2D574FF13FC7D8093
:03040000E480EFA6
:10040300ED33EC33601004700FED547F700574020C
:0A04130092E0227404220422E42285
:10041D00ED33EC33600A047003BD8004ECB2E7FCED
:01042D0022AC
:10042E00F920E73624F950037907E4F42402FBE5BA
:10043E0082158270021583DBF6E024FB501BE96007
:10044E0014E4F0E582158270021583E004F0B40A1C
:0D045E0008E4F0D9EE7401F00A22C2D522A4
:10046B00ED33EC3392D5FA602AB4FF33EDC2E77B60
:10047B00FF60067A047990E4227A04799920D504F6
:10048B007A047994224E614E002B494E46002D4939
:10049B004E4600E47A08F0A3DAFC7B00740722C016
:1004AB0083C082ECC0E0EDC0E0EEC0E0EFC0E0EA5C
:1004BB0075F010A4CAABF075F04DA42BFBE435F02E
:1004CB00FCEA2410FAEB34C5FBEC34D9FCEDC2E7A3
:1004DB00FF75F056A4F42411C5F0F434C58FF0A4C5
:1004EB002AE5F03BE43CF020E7141205A0D0E0FF36
:1004FB00D0E0FED0E0FDD0E0FC12022E8014F4041C
:10050B001205A0D0E0FFD0E0FED0E0FDD0E0FC1261
:10051B000125D082D083E0FAEDD2E7CD33EC332442
:10052B0082FBE4C3CF33CFCE33CECD33CD33DBF32E
:10053B007B0775F00A846004F0A31B0AE5F0F0A3B7
:10054B008FF0740AA4FFACF08EF0740AA42CFEACEE
:10055B00F050010C8DF0740AA42CFDE435F0F0A3DF
:05056B00DBDE74072235
:1020F20033DA929E35B16011377FE5FE392184894A
:102102003AAEC3FF3C1D955B3D6358473E75FDF0FB
:102112003F3172183F800000C2D50203F80203EE7D
:10212200BD80FA50F30203F5ED33EC330460F17B2A
:102132003B7AAA79B8783F120125ED33EC3392D578
:10214200247B5011A2D570DB500BED448024045047
:1021520004A2D580CEEFFBEEFAEDF9ECF812038281
:10216200EFF582F404FC12034E120034C082902078
:10217200F274091205EFED33CC33D0F092D525F08D
:0A218200A2D57001C313CC13FD2297
:101A07003E9248DA3ECCCCCD3F2AAAAB400000003C
:101A17003F8000003F9837F03FB504F33FD744FCC1
:101A27003E3172173EB172173F0515913EDE5BD905
:101A3700D2008002C200EDD2E7F8CD33EC33047058
:101A47000BBD800592D50203F80203EE40FBD314C9
:101A570060F2F5F07C3FEE7A00C39496C8948B4011
:101A6700230AC89469C8941A401A0AC89468C89483
:101A77001F40110AC8945AC89425400805F07A00F7
:101A8700CDC2E7CDC0F09060781208A2EA2323C048
:101A9700E02417F582E4341AF58312089212003411
:101AA700ECC0E0EDC0E0EEC0E0EFC0E012087690D9
:101AB7006078120886120030D0E0FBD0E0FAD0E060
:101AC700F9D0E0B2E7F812022E9060781208A290DF
:101AD7001A0774031205E090607812088612012530
:101AE700D0E0600F2423F582E4341AF583120892BC
:101AF7001200349060781208A2D0E0C3947FFDE40E
:101B07009400FC1203497B187A727931783F1201ED
:101B17002590607812088612003430000B7BD97A42
:091B27005B79DE783E12012522F3
:100570003F8000004120000042C80000447A000093
:10058000461C400047C35000497424004B18968015
:100590004CBEBC205A0E1BCA6753C21C749DC5AE0C
:1005A000FB60065407601C23231205CEEB54386011
:1005B000091205BA1205C9120125ECF8EDF9EEFA97
:1005C000EFCB22EB1205C980F1543803241C9005AF
:1005D00070FE93FC0EEE93FD0EEE930ECE93FF2273
:1005E000C0E0EFFBEEFAEDF9ECF8120125D0E0F5F2
:1005F000F0EFFBEEFAEDF9ECF8120876A3A3A3A353
:10060000E8C0E0E9C0E0EAC0E0EBC0E0C0F0120101
:1006100025120892A3A3A3A3120034D0F0D0E0FBCC
:0D062000D0E0FAD0E0F9D0E0F8D5F0D42217
:10222C000224AEE493A3F8E493A34003F68001F2F6
:10223C0008DFF48029E493A3F85407240CC8C333B3
:10224C00C4540F4420C8834004F456800146F6DF82
:10225C00E4800B0102040810204080901FAFE47E44
:10226C00019360BCA3FF543F30E509541FFEE49377
:10227C00A360010ECF54C025E060A840B8E493A33E
:10228C00FAE493A3F8E493A3C8C582C8CAC583CA69
:10229C00F0A3C8C582C8CAC583CADFE9DEE780BE21
:01205000008F
:10062D00BB010689828A83E0225002E722BBFE02CB
:09063D00E32289828A83E49322FE
:10064600BB010CE58229F582E5833AF583E0225069
:1006560006E92582F8E622BBFE06E92582F8E222B3
:0D066600E58229F582E5833AF583E49322CD
:10067300BB010689828A83F0225002F722BBFE0166
:02068300F32260
:10068500EF8DF0A4A8F0CF8CF0A428CE8DF0A42E89
:02069500FE2243
:10069700BC000BBE0029EF8DF084FFADF022E4CC47
:1006A700F875F008EF2FFFEE33FEEC33FCEE9DEC10
:1006B700984005FCEE9DFE0FD5F0E9E4CEFD22ED56
:1006C700F8F5F0EE8420D21CFEADF075F008EF2FA0
:1006D700FFED33FD4007985006D5F0F222C398FD91
:0506E7000FD5F0EA222E
:1006EC00A3F8E0C5F025F0F0E582158270021583C1
:0606FC00E0C838F0E8221E
:10070200BB0110E58229F582E5833AF583E0F5F035
:10071200A3E0225009E92582F886F008E622BBFE12
:100722000AE92582F8E2F5F008E222E5832AF58358
:08073200E993F5F0A3E993221D
:10073A00E88FF0A4CC8BF0A42CFCE98EF0A42CFC5E
:10074A008AF0EDA42CFCEA8EF0A4CDA8F08BF0A4DC
:10075A002DCC3825F0FDE98FF0A42CCD35F0FCEB3B
:10076A008EF0A4FEA9F0EB8FF0A4CFC5F02ECD3900
:0F077A00FEE43CFCEAA42DCE35F0FDE43CFC226D
:1007890075F008758200EF2FFFEE33FECD33CDCC27
:1007990033CCC58233C5829BED9AEC99E5829840AA
:1007A9000CF582EE9BFEED9AFDEC99FC0FD5F0D687
:1007B900E4CEFBE4CDFAE4CCF9A88222B800C1B9B1
:1007C9000059BA002DEC8BF084CFCECDFCE5F0CBEF
:1007D900F97818EF2FFFEE33FEED33FDEC33FCEB28
:1007E90033FB10D703994004EB99FB0FD8E5E4F9E3
:1007F900FA227818EF2FFFEE33FEED33FDEC33FCD0
:10080900C933C910D7059BE99A4007EC9BFCE99AC3
:10081900F90FD8E0E4C9FAE4CCFB2275F010EF2F08
:10082900FFEE33FEED33FDCC33CCC833C810D70708
:100839009BEC9AE899400AED9BFDEC9AFCE899F843
:0E0849000FD5F0DAE4CDFBE4CCFAE4C8F922D6
:0E085700C3E49FFFE49EFEE49DFDE49CFC22B2
:10086500EB9FF5F0EA9E42F0E99D42F0E89C45F0E9
:010875002260
:10087600E493FC740193FD740293FE740393FF22C8
:0C088600E0F8A3E0F9A3E0FAA3E0FB22F5
:10089200E493F8740193F9740293FA740393FB22BC
:0C08A200ECF0A3EDF0A3EEF0A3EFF022C9
:1008AE00A8828583F0D083D0821208C51208C512A3
:1008BE0008C51208C5E473E493A3C583C5F0C583C8
:1008CE00C8C582C8F0A3C583C5F0C583C8C582C894
:0108DE0022F7
:1008DF00F8E0FBA3A3E0F925F0F0E58215827002A2
:0708EF001583E0FA38F02246
:0908F600EBF0A3EAF0A3E9F02203
:1008FF00D083D082F8E4937012740193700DA3A388
:10090F0093F8740193F5828883E47374029368609B
:06091F00EFA3A3A380DF9B
:10092500D083D082F8E4937012740193700DA3A361
:1009350093F8740193F5828883E473740293B5F098
:0D094500067403936860E9A3A3A3A380D800
:10095200EC8EF0A4CCC5F0CCCDF8EFA4CEC5F02D32
:10096200FDE43CFCE8A42EC8C5F03DFDE43CFCEFF0
:0D097200A4FFE5F028FEE43DFDE43CFC227E
:00000001FF
