:0300000002254A8C
:0C254A00787FE4F6D8FD7581230225910E
:0C000300000000000000000000000000F1
:0B001200EF1FAC0670011E4C70F622C0
:102ACC00AB07AA06EB1BAE0270011A4E60097FAA77
:082ADC007E0512001280ED22BC
:10211600907120E04480F07F057E00120012E4FFFB
:10212600FE122ACC75A75575AC589071327450F0D2
:102136009071307403F0907136742FF07F18EF248D
:1021460066FDE434718D82F583E4F00FEFB433EE6F
:10215600904011E4935407FF90711CE054F84FF03F
:10216600904017E493547FFF90711DE054804FF028
:10217600904010E493FF5401C43333335480FE90EF
:102186007123E0547F4EF0EFC313543F4440FFA346
:10219600E054804FF0904012E493FF540FFE90718C
:1021A60046E054F04EF0EFC4540FFF90714FE054E8
:1021B600F04FF0904013E493543FFF907140E05489
:1021C600C04FF0904014E493907126F0904015E4CF
:0E21D60093907128F0904016E49390712AF0D7
:0121E40022D8
:1029120054583843313236785F53444B206D6169E5
:102922006E2073746172740A00616463305F766151
:102932006C203D2025642020616463315F76616CE8
:0A294200203D202564200D0A20002E
:0E2AE4009060D1EFF0122AF29060D1E0FF2254
:1027640012211690611B7401F07F0A7E00122ACC9C
:10277400122A2C7BFF7A29791212294C12297FE51F
:10278400B254CF441042B2E5B2543F444042B21274
:102794002A4B1228831228CC121BA41212E47BFFAA
:1027A4007A29792B9060FEE0FFA3E09060A4CFF03B
:1027B400A3EFF0906100E0FFA3E09060A6CFF0A348
:1027C400EFF0120A13122A6675D9AA1229AC12293B
:0627D400D91226E580F297
:0D2AF200E5F430E4FB8FF7E5F430E4FB225F
:102A2C00E4906070F078E2E254F3F2E24404F29045
:0E2A3C00718F7403F075F60175F59F75F21039
:012A4A002269
:10294C009060D2EBF0A3EAF0A3E9F09060D2E0FB48
:10295C00A3E0FAA3E0F912062D60179060D2A3E46D
:10296C0075F0011206ECA9F0FA12062DFF122AF2EC
:03297C0080D922DD
:05202B004261170000F6
:102A4B0043A820D2AF75D10178957401F218747632
:0B2A5B00F2789174A0F21874FDF222D2
:03001E000222B407
:1022B400C0E0C0F0C083C082C0D075D000C000C0F0
:1022C40001C002C003C004C005C006C00775B2A0A7
:1022D4007891E220E70302235DE24480F274FFFF79
:1022E400FEFDFC90610EE0F8A3E0F9A3E0FAA3E0A0
:1022F400FBC312087B502F906112E090610EB40171
:102304001EE0FCA3E0FDA3E0FEA3E02401FFE43E05
:10231400FEE43DFDE43CFC90610E1208CB80071204
:1023240008D700000000122A9A121BA4906118E03A
:1023340004F07006906117E004F0C3906118E09413
:10234400E8906117E094034010E4F0A3F0121A5EE1
:1023540012111F121F2F1225D675B250D007D006A6
:10236400D005D004D003D002D001D000D0D0D08288
:07237400D083D0F0D0E0326D
:1028830078567407F278277417F218746FF2783356
:10289300E4F218F27819E24401F27811E24401F209
:1028A3007817E24401F27812E24401F27814E24428
:1028B30001F27818E24401F278D3E254CFF2E24411
:0928C30010F290718C740AF022ED
:0A2030004261130000426115000038
:10297F0078D3E254FCF2907172740DF043A9047590
:10298F00D11075E6FF75E7FF75DAFEE4F5DB75DC50
:0D299F004275DD0475DF0375DE01D2AF2245
:03002A0002283970
:10283900C0E0C083C082C0D075D000C005C007E524
:10284900EE30E11243E202AFE9EFFFADE8ED90614E
:1028590015CFF0A3EFF0E5EE30E01243E201AFE768
:10286900EFFFADE6ED906113CFF0A3EFF0D007D005
:0A28790005D0D0D082D083D0E03229
:101916006C5F7077722E656E203D20310D0A006C6B
:101926005F7077722E656E203D20300D0A00657857
:101936005F74656D705F656E203D20300D0A006531
:10194600785F74656D705F656E203D20310D0A000D
:1019560061646A7573745F656E203D20300D0A0000
:1019660061646A7573745F656E203D20310D0A00EF
:101976005F335F312E656E20203D20310D0A005FFA
:10198600335F312E656E20203D20300D0A00745FD6
:101996006374726C2E656E203D20310D0A00745FF3
:1019A6006374726C2E656E203D20300D0A00745FE4
:1019B6006374726C2E6C697374203D2030200D0A9E
:1019C60000745F6374726C2E6C697374203D2031F1
:1019D6000D0A2000745F6374726C2E6C6973742038
:1019E6003D20320D0A2000745F6374726C2E6C69A0
:1019F6007374203D20330D0A2000745F6374726C8B
:101A06002E6C697374203D20340D0A006C766420B8
:101A1600707772206C6F77200A004C45445F5057F0
:101A2600525F4F4E001770040BB8080000FF177086
:101A3600051068030BB8040000FF17700410680453
:101A46000BB8040000FF1770040E10020708030EFF
:081A560010021770010000FFEF
:10203A0042601200004460260000000044603A003A
:10204A0000000044606B0000000042602000004273
:10205A0060691770C11741606700C11549602F1781
:10206A0070060BB8060000FF42600000FF426038AD
:10207A0000004160170041606F0154605300000086
:10208A000000000000000000000000000000000046
:10209A00004260090000C112C1134160480041605A
:1020AA00680041601F004460053F80000044602AC8
:0B20BA00428C00004460220000000087
:1026E500906104E0FEA3E0FF7C007D17120697AB26
:1026F50007AA06301668D3E09460906104E0940E52
:1027050040028018EB4A700B906049740EF0A37478
:10271500108012C3EB94A0EA9400401390604974B2
:1027250017F0A37470F0906000EAF0A3EBF022902C
:102735006000E06A7003A3E06B60237C007D0FAF4F
:1027450003AE02120685EF2410FFEE340E906049A9
:0E275500F0A3EFF0AF03906000EAF0A3EFF006
:012763002253
:102A0400906012E0FEA3E0FFC374709F906071F0C9
:102A140074179E906070F0EE7833F2906013E018B3
:072A2400F27817E24401F211
:012A2B002288
:102A9A00906002E0C3940A5003E004F090602EE0D4
:092AAA0004F0906048E004F02201
:1029AC00906002E0C3940A4012E4F0906018E0B426
:1029BC00010312162D121E0E1221E5906048E0B490
:0D29CC000308E4F01224B612237B020E2B48
:10162D00906115E0FAA3E0FB4A7026906113E0701B
:10163D0002A3E0701C20940A9060261208D70000C7
:10164D0000003094529060261208D7000017708069
:10165D0046EB2401FFE43AFE7C177D7012097B9066
:10166D0060261208CB906026E0FCA3E0FDA3E0FE0F
:10167D00A3E0FFC006C007906114E02401FF906154
:10168D0013E03400AB07FAE4F9F8D007D0061207DF
:10169D00C59060261208CBE4906115F0A3F090611F
:1016AD0013F0A3F0906026A3A3E0FEA3E0FF9060EB
:1016BD0068E025E0243EF582E43460F583EEF0A386
:1016CD00EFF0906068E004F0E0B4050B90601F74DB
:1016DD0001F0E4906068F090601FE06401706D901F
:1016ED0060261208D700000000E4906070F0906052
:1016FD0026E0F8A3E0F9A3E0FAA3E0FB906070E028
:10170D0025E0243EF582E43460F583E0FEA3E0FF9E
:10171D00E4FCFDEB2FFFEA3EFEED39FDEC38FC90CD
:10172D0060261208CB906070E004F0E0B405BF9025
:10173D006026E0FCA3E0FDA3E0FEA3E0FFE47B0553
:10174D00FAF9F81207C59060261208CB30164090B2
:10175D006049E0FEA3E0FFE4FCFD906026E0F8A305
:10176D00E0F9A3E0FAA3E0FB12073AE47B707A17E5
:10177D00F9F81207C590603A1208CB90603AE0FC78
:10178D00A3E0FDA3E0FEA3E0FF9060261208CB903E
:10179D006026E0FCA3E0FDA3E0FEA3E0FF90606BFC
:0317AD000208CB64
:1021E50090611BE0640170030222B3E47F0AFEFDE7
:1021F500FC906026E0F8A3E0F9A3E0FAA3E0FBD3A6
:1022050012087B405F906026E0FCA3E0FDA3E0FEA2
:10221500A3E024F6FBEE34FFFAED34FFF9EC34FFCE
:10222500F8906012E0FEA3E0FFE4FCFDD312087B0A
:10223500400690611B7402F0906026E0FCA3E0FD6F
:10224500A3E0FEA3E0240AFBE43EFAE43DF9E43C06
:10225500F8906012E0FEA3E0FFE4FCFDC312087BEA
:10226500504C8044906012E0FEA3E0FFE4FCFD903A
:102275006026E0F8A3E0F9A3E0FAA3E0FBD3120897
:102285007B400690611B7402F0906012E0FEA3E0B3
:10229500FFE4FCFD906026E0F8A3E0F9A3E0FAA3D3
:0F22A500E0FBC312087B500690611B7403F0220C
:100E2B0090611BE06401600302111E90601FE0647F
:100E3B0001600302111E301603020FA3906018E02D
:100E4B007011906069E0FEA3E0FFE4FCFD9060266A
:100E5B001208CBE4FBFA7940784190602AE0FCA3BE
:100E6B00E0FDA3E0FEA3E0FF12022E906022120829
:100E7B00CBE4FFFE7D807C3F906022E0F8A3E0F99D
:100E8B00A3E0FAA3E0FB1202CB500A9060221208F7
:100E9B00D74120000090602EE0FCE412034E9060DE
:100EAB0022E0F8A3E0F9A3E0FAA3E0FB1202CB6087
:100EBB0005400302111EE490602EF0906012E0FEDC
:100ECB00A3E0FFE4FCFD906026E0F8A3E0F9A3E0CB
:100EDB00FAA3E0FBD312087B5003020F6BE4FFFE77
:100EEB007D807CBF90602AE0F8A3E0F9A3E0FAA331
:100EFB00E0FB120034E4FBFA79A8784212022EE4EC
:100F0B00FBFA798078BF12003490604B1208CB90BB
:100F1B00602AE0FCA3E0FDA3E0FEA3E0FFE4FBFA04
:100F2B00F9783F12003490602A1208CB90604BE0A6
:100F3B00FCA3E0FDA3E0FEA3E0FF9060741208CBDE
:100F4B007F007E007DA07C401217B0E4FBFA797025
:100F5B007842120125120382906012EEF0A3EFF09B
:100F6B00906012E0FEA3E0FFE4FCFD906026E0F849
:100F7B00A3E0F9A3E0FAA3E0FBD312087B50169091
:100F8B006026A3A3E0FFA3E0906012CFF0A3EFF0E5
:100F9B00E490611BF0122A0420160302111E9060CC
:100FAB0018E0FB7011906049E0FEA3E0FFE4FCFD4C
:100FBB009060261208CBEBB4011490603AE0FCA3CE
:100FCB00E0FDA3E0FEA3E0FF9060261208CBE4FB5C
:100FDB00FA7940784190602AE0FCA3E0FDA3E0FEA3
:100FEB00A3E0FF12022E9060221208CBE4FFFE7DDD
:100FFB00807C3F906022E0F8A3E0F9A3E0FAA3E045
:10100B00FB1202CB500A9060221208D7412000003D
:10101B0090602EE0FCE412034E906022E0F8A3E017
:10102B00F9A3E0FAA3E0FB1202CB60054003021127
:10103B001EE490602EF0906012E0FEA3E0FFE4FC53
:10104B00FD906026E0F8A3E0F9A3E0FAA3E0FBD360
:10105B0012087B50030210E6E4FFFE7D807CBF90FC
:10106B00602AE0F8A3E0F9A3E0FAA3E0FB12003456
:10107B00E4FBFA79A8784212022EE4FBFA79807825
:10108B00BF12003490604B1208CB90602AE0FCA397
:10109B00E0FDA3E0FEA3E0FFE4FBFAF9783F1200CA
:1010AB003490602A1208CB90604BE0FCA3E0FDA3C8
:1010BB00E0FEA3E0FF9060741208CB7F007E007D02
:1010CB00A07C401217B0E4FBFA797078421201252C
:1010DB00120382906012EEF0A3EFF0906012E0FE2C
:1010EB00A3E0FFE4FCFD906026E0F8A3E0F9A3E0A9
:1010FB00FAA3E0FBD312087B5016906026A3A3E063
:10110B00FFA3E0906012CFF0A3EFF0E490611BF02F
:04111B00122A04226E
:1024B60090611BE064026003022549906012E0FE11
:1024C600A3E0FFE4FCFD906026E0F8A3E0F9A3E0BA
:1024D600FAA3E0FBD312087B40213015109060135D
:1024E600E004F07016906012E004F0800E90601325
:1024F600E0240AF0906012E03400F0906012E0FEF2
:10250600A3E0FFE4FCFD906026E0F8A3E0F9A3E079
:10251600FAA3E0FBD312087B5026906026A3A3E023
:10252600FEA3E0FF906012EEF0A3EFF0E490611BD3
:10253600F0AD07AC061203499060051208CBC21530
:04254600122A04222F
:10237B0090611BE06403600302241B906012E0FE7B
:10238B00A3E0FFE4FCFD906026E0F8A3E0F9A3E0F6
:10239B00FAA3E0FBC312087B502E30150890601394
:1023AB00E024FF801BD3906013E09432906012E026
:1023BB0094004006A3E024F68006906013E024FF0F
:1023CB00F0906012E034FFF0906012E0FEA3E0FFAB
:1023DB00E4FCFD906026E0F8A3E0F9A3E0FAA3E0AB
:1023EB00FBC312087B4026906026A3A3E0FEA3E06C
:1023FB00FF906012EEF0A3EFF0FDAC06E412034980
:10240B009060051208CBC215E490611BF0122A04F0
:01241B00229E
:1012E4001227DA78D2E2543FF278D0E24408F208C6
:1012F400E24408F208E254CFF278D0E24404F278EF
:10130400D2E254F3F278D0E24402F278C2E254FC1E
:10131400F278C0E24401F278C2E254CFF278C0E23B
:101324004404F278C2E2543FF278C0E24408F22066
:10133400800E9060197401F07BFF7A197916800B86
:10134400E4906019F07BFF7A197925120A13D3907F
:1013540060FFE094A09060FEE0940F400AC2147B0A
:10136400FF7A1979348008D2147BFF7A19794512EF
:101374000A13D3906101E094A0906100E0940F40BF
:101384000AC2167BFF7A1979568008D2167BFF7A37
:10139400197966120A1330820E9060187401F07B7A
:1013A400FF7A1979768010E4906018F090601F0439
:1013B400F07BFF7A197985120A1320830E9060114D
:1013C4007401F07BFF7A197994800BE4906011F03A
:1013D4007BFF7A1979A4120A1330932130921E30BC
:1013E400911BE4906010F090601404F0A37460F01A
:1013F400A3742FF07BFF7A1979B4021493209322FB
:1014040030921F30911C9060107401F0906014743D
:10141400FFF0A3741AF0A3742BF07BFF7A1979C739
:10142400806D30932220921F30911C9060107402C2
:10143400F090601474FFF0A3741AF0A37434F07B7A
:10144400FF7A1979DA804830932230921F20911C58
:101454009060107403F090601474FFF0A3741AF099
:10146400A37440F07BFF7A1979ED80232093232025
:10147400922030911D9060107404F090601474FFF9
:10148400F0A3741AF0A3744CF07BFF7A1A7900125B
:031494000A132216
:101F2F00906019E06401600302202A7F107E0EFD8D
:101F3F00FC90601BE0F8A3E0F9A3E0FAA3E0FBC379
:101F4F0012087B501F90601BE0FCA3E0FDA3E0FE96
:101F5F00A3E02401FFE43EFEE43DFDE43CFC906081
:101F6F001B0208CBD213301661906018E064017029
:101F7F002E906049E0FEA3E0FF7C007D641206977F
:101F8F007C007D4B120685E4FD90603AE0F8A3E0FB
:101F9F00F9A3E0FAA3E0FBD312087B402D80009059
:101FAF006049E0FEA3E0FF7C007D641206977C0091
:101FBF007D4B120685906069EEF0A3EFF090601AEA
:101FCF007401F0E4906019F0D21520163A90601861
:101FDF00E0601DE47F947E11FDFC906026E0F8A385
:101FEF00E0F9A3E0FAA3E0FBD312087B40198000CD
:101FFF009060697411F0A37494F090601A7401F0FA
:10200F00E4906019F0D215E4906019F0906069E0E7
:0C201F00FFA3E0906020CFF0A3EFF022C0
:101E0E00906011E0FB702B301628906018E0B40142
:101E1E001090603AE0FCA3E0FDA3E0FEA3E0FF809B
:101E2E000B906049E0FEA3E0FFE4FCFD90602612FB
:101E3E0008CB90601AE064016005EB6401707A30A3
:101E4E001647906018E0B40140906069E0FEA3E090
:101E5E00FFE4FCFD90603AE0F8A3E0F9A3E0FAA3FA
:101E6E00E0FBD312087B4011906069E0FEA3E0FF17
:101E7E00E4FCFD90603A1208CB90603AE0FCA3E0DF
:101E8E00FDA3E0FEA3E0FF802A906069E0FEA3E0E0
:101E9E00FFE4FCFD906026E0F8A3E0F9A3E0FAA3CE
:101EAE00E0FBD312087B4011906069E0FEA3E0FFD7
:101EBE00E4FCFD9060261208CB301464906011E0B3
:101ECE00705E201617906018E07011906069E0FE49
:101EDE00A3E0FFE4FCFD9060261208CB906069E061
:101EEE00FEA3E0FFE4FCFD906026E0F8A3E0F9A37A
:101EFE00E0FAA3E0FBD312087B4011906069E0FE8C
:101F0E00A3E0FFE4FCFD9060261208CB906069E030
:101F1E007002A3E0700A9060261208D7000000003D
:011F2E002290
:10111F00906011E0640160030212E390600FE075CC
:10112F00F003A4FF906014E0FBA3E0FAA3E02FF913
:10113F00EA35F0FA900002120646F470030212E349
:10114F0090600BE0FCA3E0FDA3E0FEA3E02401FF11
:10115F00E43EFEE43DFDE43CFC90600B1208CB90B6
:10116F00600FE075F003A4FF906014E0FBA3E0FABA
:10117F00A3E02FF9EA35F0FA900002120646FE7549
:10118F00F00EA4CE75F010A4FFE5F02EFEE4FCFDEA
:10119F0090600BE0F8A3E0F9A3E0FAA3E0FBC31221
:1011AF00087B50030212E390600FE004F0D2159019
:1011BF00600B1208D700000000906014E0FBA3E062
:1011CF00FAA3E0F990600FE075F003A4F58285F0C3
:1011DF0083120702FF906069E5F0F0A3EFF0D213DE
:1011EF0020160302127A906069E0FEA3E08EF012DF
:1011FF00094E125C0708124C0BB812370E10122250
:10120F001068121917700000127A906049E0FFA35E
:10121F00E08034906049E0FEA3E0FF7C007D0A127D
:10122F0006977C007D078038906049E0FEA3E0FFC1
:10123F007C007D0A1206977C007D06802390604912
:10124F00E0C313FFA3E013906069CF801A90604949
:10125F00E0FEA3E0FF7C007D0A1206977C007D0371
:10126F00120685906069EEF0A3EFF0906018E0B47D
:10127F000137301434906011E0702E906069E0FEF9
:10128F00A3E0FFE4FCFDA3E0F8A3E0F9A3E0FAA3D9
:10129F00E0FBC312087B501190606BA3A3E0FFA388
:1012AF00E0906069CFF0A3EFF0906069E0FAA3E0FF
:1012BF00FBFFAE02E4FCFD9060261208CB30161443
:1012CF00906018E0B4010DAF03AE02E4FCFD906036
:0512DF003A1208CB22C9
:1025D6002017030226617BFF7A1A791212294C9082
:1025E6006067E004F0E0C394054070E4906119F080
:1025F600906067F0C217906012F0A3F09060697463
:1026060017F0A37470F0E4906010F090600B12085D
:10261600D700000000E4906011F090600FF0906029
:1026260019F0A3F0A31208D700000000E490601888
:10263600F09060261208D700000000C214C216905F
:1026460060051208D7400000001212E490611B7466
:0C26560001F07BFF7A1A7920120A13228F
:1027DA00E4906119F0906067F0C217906012F0A35C
:1027EA00F09060697417F0A37470F0E4906010F0D0
:1027FA0090600B1208D700000000E4906011F0907E
:10280A00600FF0906019F0A3F0A31208D70000003F
:10281A0000E4906018F09060261208D700000000CB
:0F282A00C214C2169060051208D74000000022A9
:102AB3006C7664330A006C7664340A006C766420A6
:092AC300707772206F6E200A008A
:0420C50041611A005B
:03000F0002266264
:10266200C0E0C0F0C083C082C0D075D000C000C03E
:1026720001C002C003C004C005C006C00775B2A0F5
:1026820090715BE030E410E04410F0906119740145
:10269200F0A3E0FF122AF290611AE0B403119061F4
:1026A200197403F0D2177BFF7A2A79B312294C905E
:1026B200611AE0B4040F9061197404F07BFF7A2A66
:1026C20079B912294C75B250D007D006D005D00482
:1026D200D003D002D001D000D0D0D082D083D0F0AD
:0326E200D0E03213
:102A660043A801D2AF90715AE05442F0E04495F089
:0A2A7600A3E0F090611A7403F0224F
:102A800043A801D2AF90715AE05442F0E0449DF067
:0A2A9000A3E0F090611A7404F02234
:1029D900906119E0B4041AE4F07F0AFE122ACC903F
:1029E9006119E0700C7BFF7A2A79BF12294C122AEF
:0B29F90066906119E0B40302D21722BF
:1020C9004161080041610900C118602860D500001C
:1020D90000000000000000000000000000000000F7
:1020E90000000000000000000000000000000000E7
:0A20F9000000000000004160FD003F
:1028CC0078E2E244C0F278F2E24403F278E0E244C7
:1028DC0080F208E2F278F0E24401F208E2F2907140
:1028EC0023E054D8F0E0441EF09071227407F07588
:1028FC0099177869E24448F2759A18E24450F27FCD
:06290C00017E00022ACC4E
:051497009060A8EFF0D9
:10149C00E4A3F0A3F0A3F09060AC1208D700000016
:1014AC0000E49060B0F0A3F074FF9060B2F0A3F091
:1014BC00E49060A9F09060A8E0702B7869E2440198
:1014CC00F2786BE230E1FAAF93EF75F010A4FFE520
:1014DC0094C4540FFDEF4DFF9060AAE5F0F0A3EF1C
:1014EC00F07402F280297869E24402F2786BE230FF
:1014FC00E2FAAF95EF75F010A4FFE596C4540FFD1A
:10150C00EF4DFF9060AAE5F0F0A3EFF07404F290B9
:10151C0060A9E0C39402406D9060B0E0FEA3E0FFD0
:10152C00D39060ABE09F9060AAE09E400CE0FFA3DC
:10153C00E09060B0CFF0A3EFF09060B2E0FEA3E0DB
:10154C00FFC39060ABE09F9060AAE09E500CE0FF60
:10155C00A3E09060B2CFF0A3EFF09060ACE0F8A302
:10156C00E0F9A3E0FAA3E0FB9060AAE0FEA3E0FFA1
:10157C00E4FCFDEB2FFFEA3EFEED39FDEC38FC9070
:10158C0060AC1208CB9060A9E004F0E06414600336
:10159C000214C19060ACE0FCA3E0FDA3E0FEA3E06C
:1015AC00FFC006C0079060B0E0FEA3E0FBAA06D027
:1015BC0007D006C3EF9BFFEE9AFEED9400FDEC9472
:1015CC0000FC9060AC1208CB9060ACE0FCA3E0FD9A
:1015DC00A3E0FEA3E0FFC006C0079060B2E0FEA34C
:1015EC00E0FBAA06D007D006C3EF9BFFEE9AFEEDF8
:1015FC009400FDEC9400FC9060AC1208CB9060ACB5
:10160C00E0FCA3E0FDA3E0FEA3E0FF780412088C4D
:10161C009060AAEEF0A3EFF09060AAE0FEA3E0FFCA
:01162C00229B
:101BA4007869E24402F2786BE230E2FA7404F2AF4C
:101BB40095EF75F010A4FFE596C4540FFDEF4DFFAB
:101BC400906100E5F0F0A3EFF0906100E0FEA3E087
:101BD400FF906107E02FF0906106E03EF09061080D
:101BE400E004F0E0B40A22906106E0FEA3E0FF7C8A
:101BF400007D0A120697906104EEF0A3EFF0E490E2
:091C04006108F0906106F0A3F004
:101C0D00E4FF1214979060A1EEF0A3EFF0201830CE
:101C1D00E4A3F09060A3E0FFC3941450219060A161
:101C2D00E0FCA3E0FDEF25E024D5F582E43460F57A
:101C3D0083ECF0A3EDF09060A3E004F080D5D21812
:101C4D009060A1E0FEA3E0FF9060FDE025E024D5CB
:101C5D00F582E43460F583EEF0A3EFF09060FDE0E3
:0A1C6D0004F0E0C394144002E4F018
:101C7700E49060A3F0A31208D7000000009060A4CE
:101C8700E0F8A3E0F9A3E0FAA3E0FB9060A3E02566
:101C9700E024D5F582E43460F583E0FEA3E0FFE4B9
:101CA700FCFDEB2FFFEA3EFEED39FDEC38FC9060C2
:101CB700A41208CB9060A3E004F0E0B414BFE47B67
:101CC70014FAF9F89060A4E0FCA3E0FDA3E0FEA3FA
:0D1CD700E0FF1207C590610AEEF0A3EFF0E8
:011CE40022DD
:1021030044610E000000004161120042610C0000B6
:02211300C119F0
:101A5E00906112E0702790610CE0FEA3E0FFE4FCC1
:101A6E00FD7BFF7AFFF9F8D3120865401790610DE0
:101A7E00E004F0700F90610CE004F08007E49061D8
:101A8E000CF0A3F0201403021BA1906011E0600380
:101A9E00021BA1906112E06003021B43C390610B15
:101AAE00E094B890610AE0940B501390606974FE54
:101ABE00F0A374ECF09061127401F0021B9CC390C1
:101ACE00610DE0940890610CE094075003021B9C9A
:101ADE00E4F0A3F020135830161D906018E0B40106
:101AEE000790603AA3A38003906049E0FFA3E090C3
:101AFE006069CFF0A3EFF0201618906018E0B401E3
:101B0E001190606BA3A3E0FFA3E0906069CFF0A3F8
:101B1E00EFF020801A906020E0FEA3E0FFD39060EB
:101B2E006AE09F906069E09E4005EEF0A3EFF03012
:101B3E00135CC21322906112E0B4012E906069749E
:101B4E00FEF0A374ECF07FE07E937D047C00906148
:101B5E000EE0F8A3E0F9A3E0FAA3E0FBC312087BC2
:101B6E00402C9061127402F08024906112E0B40255
:011B7E001D49
:101B7F00C390610BE094B890610AE0940B5002D2CD
:0D1B8F0019301909906069E4F0A374BDF0ED
:071B9C00301302C213D21541
:011BA300221F
:10002D000203EEE86480F8E933E83360110460F010
:10003D00ED33EC337009E8FCE9FDEAFEEBFF220439
:10004D0060DED3EB9FEA9EE99DE8C2E78CF0C2F734
:10005D0095F0400CE8CCF8E9CDF9EACEFAEBCFFB00
:10006D001203B985D0F05804700320D5B3E804709D
:10007D00075002B2D50203F892D5EC0460F7E4CC38
:10008D00C0E0C398F8603B94186008400DD0E0FBC9
:10009D000203D0E4FBFAC9FC8028E830E406E4C989
:1000AD00FBE4CAFCE830E305E4C9CACBFCE854071D
:1000BD006010F8C3E913F9EA13FAEB13FBEC13FC28
:1000CD00D8F130F52FC3E49CFCEF9BFFEE9AFEEDCB
:1000DD0099FDD0E0FBEF4E4D4C701222DB03020375
:1000ED00F5EC2CFCEF33FFEE33FEED33FDED30E799
:1000FD00EB0203D0EF2BFFEE3AFEED39FDD0E0FB26
:10010D0050130BBB00030203F8ED13FDEE13FEEFCE
:08011D0013FFEC13FC0203D0F8
:10012500EC4D6011E8497017ED33EC3304600DE4D4
:10013500FCFFFEFD22E933E8330470F80203EE12FA
:1001450003B958046009E4CC2481500628500902FB
:1001550003F82840030203F5C0E0EB4A7044B98078
:1001650006D0E0FB0203E4EF4E701CBD8008EBFFF8
:10017500EAFEE9FD80EBE98DF0A4FEE5F002020E52
:10018500E9CDF9EAFEEBFFEF89F0A4FCE5F0CE89B5
:10019500F0A42EFFE435F0CD89F0A42DFEE435F072
:1001A5008067EF4E7005BD80D780C3EF8BF0A4ACA0
:1001B500F0EE8BF0A42CFCE435F0F8EF8AF0A42CDB
:1001C500E5F038FCE433CB8DF0A42CFCE5F03BF8EE
:1001D500EE8AF0A42CFCE5F038F8E433CF89F0A4DE
:1001E5002CFCE5F038CF3400CE89F0A42FFFE5F0E4
:1001F5003EFEE433C98DF0A42EFEE5F039CD8AF03C
:10020500A42FFFE5F03EFEE43DFD33D0E0FB5007B3
:100215000BBB000F0203F8EC2CFCEF33FFEE33FEB3
:06022500ED33FD0203D0E1
:10022B000203F8EC5D046005E8590470030203EE69
:10023B001203B9580460F6EC4860F2EC7004FDFE52
:10024B00FF22C860DB2481C85009C39860025006A6
:10025B000203F59850CAF582E9294B4A7005AB8227
:10026B000203E475F0007C1A7880C3EF9BEE9AEDE5
:10027B0099400DC3EF9BFFEE9AFEED99FDE842F01E
:10028B00DC23ACF0D0E0FFD0E0FED0E0FDAB822071
:10029B00E7101BEB60BAEC2CFCEF33FFEE33FEEDFB
:1002AB0033FD0203D0E803F830E705C0F075F0002A
:1002BB00EF2FFFEE33FEED33FD40B830E7C280AADF
:1002CB0074F8CC6480CCC86480C8F58204604FC3DA
:1002DB00EB9FF5F0EA9E42F0E99D42F0E89C45F079
:1002EB00603C501DE5825FFFE582D313CB5BCBF403
:1002FB002B5582FB50280ABA002409B9002008802C
:10030B001DE5825BFBE582D313CF5FCFF4C3132FC5
:10031B005582FF50090EBE00050DBD00010CC3EB4D
:10032B009FF5F0EA9E42F0E99D42F0E89C45F060B3
:09033B0007CC4820E701B3EC22D5
:1003440075F020800E75F010800575F0087D007E34
:10035400007F003392D530D503120857EC33401098
:10036400EF33FFEE33FEED33FDEC33FCD5F0ED223D
:0E037400E5F0247EA2D513CC92E7CDCEFF2279
:10038200EDD2E7CD33EC3392D524814006E4FFFE73
:10039200FDFC22FCE4CFCECDCC24E0501174FF80D2
:1003A200EDC3CC13CCCD13CDCE13CECF13CF04706F
:0703B200F030D5DE02085710
:1009A800E50D24A4F582E43460F583E0050D22907A
:1009B80060A13010039060A4E475F00112090802E8
:1009C800062D2009E97F2ED2098018EF540F2490B4
:1009D800D43440D4FF300D0BEF24BFB41A005003B9
:1009E8002461FFE50E6002150E0511E51170020580
:1009F8001030100E9060A1E475F001120908EF02A2
:100A08000673022AE47403D2108003E4C210F50DC1
:100A18009060A112091FE4F50EF510F511E50E60BE
:100A2800077F201209EB80F5750FFFC20AC209C2C1
:100A38000BC20CC20EC20FC2111209B7FF700D30E3
:100A480010057F001209FCAF11AE1022B4255FC259
:100A5800D5C20D1209B7FF24D0B40A00501A75F098
:100A68000A780E30D50508B6FF0106C6A426F6207A
:100A7800D5047002D20C80D924CFB41A00EF5004E8
:100A8800C2E5D20D020CEED20A80C6D20980C0D2CD
:100A98000B80BCD2D580BAD20E80B47F201209EB6D
:100AA800200B077401B50E0040F11209A8FF1209C6
:100AB800EB020A25D211D20F80951209A8FB120960
:100AC800A8FA1209A8F94A4B700679EC7A0D7BFF4F
:100AD800200B2EE50E602A7E008E8275830012069A
:100AE8004660060EEE650F70F0C2D5EBC0E0EAC0B6
:100AF800E0E9C0E0EE120D4FD0E0F9D0E0FAD0E026
:100B0800FB12062DFF60AAEBC0E0EAC0E0E9C0E0F6
:100B18001209EBD0E02401F9D0E03400FAD0E0FB70
:100B2800E50F0460DCD50FD98087D20B80A2120DA7
:100B38003160F7E50F70010412042EA90F600DE56E
:100B48000F600914F50F120DD9EF60F3EA30E702D0
:100B5800F404C3995079EAF4250F0430E701E4045A
:100B6800F50F800D120D3160C1EA050F250F120433
:100B78002EEA9060D0F030E701E4250F04D50F0489
:100B8800200E0114120D4FE4C0E0120DD99060D070
:100B9800E0601320E70714F01209D3802204F0D094
:100BA800E014C0E07F001209D3E50F60071209CAFC
:100BB800150F800B300E031209CAD0E0020A25D0A7
:100BC800E00480C4120D31609EE50F0412042E90DB
:100BD80060D0EAF0E50F200E026001042404120D33
:010BE8004FBD
:100BE90074FF04C0E0120DD91209D3E50F200E02DB
:100BF90060031209CAD0E0B50FE87F451209DD90FC
:100C090060D0E07F2B30E7047F2DF404C0E01209A7
:100C1900EBD0E075F00A84C0F01209D4D0E01209D3
:100C2900D4020A25791080027908C20FC2118008FE
:100C3900D2D5790A8004790AC2D5E50F047002F584
:100C49000FE4FAFDFEFF1209A8FC7B08200A131223
:100C590009A8FD7B1030090A1209A8FE1209A8FF8C
:100C69007B20EC3382D592D55013C3E43009069F1B
:100C7900FFE49EFEE4200A039DFDE49CFCE4CBF81E
:100C8900C20AEC700CCFCECDCCE824F8F870F38012
:100C990017C3EF33FFEE33FEED33FDEC33FCEB33DB
:100CA900FB994002FB0FD8E9EB300A05F8D0E0C404
:100CB90048B20AC0E00AEC4D4E4F78207B0070C262
:100CC900EAB50F0040BCC0E0120D51D0F0D0E020D1
:100CD9000A04C4C0E0C4B20AC0F01209D4D0F0D5E5
:100CE900F0EB020A251209280AC2530C2D580A935F
:100CF9004C0A8F420C314F0C39440C39490AA8432C
:100D09000C3F550B6C460BCC450B36470E0C500A65
:100D1900972D0A9B2E0ABE2B0A9F230ABC200DF58C
:100D29002A0A574800000AB6E50FB4FF03750F06F3
:100D39001209A8FC1209A8FD1209A8FE1209A8FFA8
:100D49009060C902046B790AA2D5200C14300E09EF
:100D5900B910020404B9080104A2D5200F025001F8
:100D690004200B68920BB50E005034C0E07F203090
:100D79000C197F30A20B720F720E500F120DA8C200
:100D89000BC20FC20EC2117F30800F300E03E9C0B3
:100D9900E01209EB300E03D0E0F9D0E0B50ECC300B
:100DA9000E177F30B9100C1209EB7F58300D077FF1
:100DB900788003B908031209EB300B057F2D02096E
:100DC900EB7F202011F87F2B200FF322920B80CF8D
:100DD9007F00B40700500B24C9F582E43460F58321
:100DE900E0FF22286E756C6C2900D20A1209A8301E
:100DF9000AF8C20A780E30D50108F6020A572D50B2
:100E09004349581209A82403B405004001E4900E8F
:100E190007931209DC743A1209DCD20C750E04022C
:020E29000C2D8E
:1017B0009060701208CBE4FFFE7D807C3F906070EB
:1017C000E0F8A3E0F9A3E0FAA3E0FB1202CB700675
:1017D00090607002190A906070E0FCA3E0FDA3E045
:1017E000FEA3E0FF120403FBA3E0FCA3E0FDA3E0E3
:1017F000FEA3E0FF120403FFB40108E4FFFE7D80B6
:101800007C3F22EF64046029EB64046024EBB401A4
:1018100030E4FFFEFDFC906074E0F8A3E0F9A3E083
:10182000FAA3E0FB1202CB60084006E4FFFEFDFCD9
:10183000229060741208D7FFFFFFFF9060740219B6
:101840000AE4906078F0A3F0FFFEFDFC906070E089
:10185000F8A3E0F9A3E0FAA3E0FB1202CB505F90FB
:101860006074E0FCA3E0FDA3E0FEA3E0FF120382AE
:10187000906078EEF0A3EFF0FDCCEECCEC120349D3
:10188000C8ECC8C9EDC9CAEECACBEFCB906074E012
:10189000FCA3E0FDA3E0FEA3E0FF120030E4FBFAAE
:1018A000F9F81202CB708A906070E0FCA3E0FDA30F
:1018B000E0FEA3E0FF12041D9060701208CB906060
:1018C00070E0FCA3E0FDA3E0FEA3E0FF121D199071
:1018D0006074E0F8A3E0F9A3E0FAA3E0FB120125AD
:1018E0001224549060741208CB906079E030E017B5
:1018F000906074E0FCA3E0FDA3E0FEA3E0FF12040F
:101900001D9060741208CB906074E0FCA3E0FDA30E
:06191000E0FEA3E0FF224F
:1003B900E9D2E7C933E833F892D5EDD2E7CD33EC8A
:0703C90033FC5002B2D52203
:1003D000EC30E7100FBF000C0EBE00080DBD00048E
:1003E0000BEB6014A2D5EB13FCED92E7FD2274FF3A
:1003F000FCFDFEFF22E480F8A2D574FF13FC7D8093
:03040000E480EFA6
:10040300ED33EC33601004700FED547F700574020C
:0A04130092E0227404220422E42285
:10041D00ED33EC33600A047003BD8004ECB2E7FCED
:01042D0022AC
:10042E00F920E73624F950037907E4F42402FBE5BA
:10043E0082158270021583DBF6E024FB501BE96007
:10044E0014E4F0E582158270021583E004F0B40A1C
:0D045E0008E4F0D9EE7401F00A22C2D522A4
:10046B00ED33EC3392D5FA602AB4FF33EDC2E77B60
:10047B00FF60067A047990E4227A04799920D504F6
:10048B007A047994224E614E002B494E46002D4939
:10049B004E4600E47A08F0A3DAFC7B00740722C016
:1004AB0083C082ECC0E0EDC0E0EEC0E0EFC0E0EA5C
:1004BB0075F010A4CAABF075F04DA42BFBE435F02E
:1004CB00FCEA2410FAEB34C5FBEC34D9FCEDC2E7A3
:1004DB00FF75F056A4F42411C5F0F434C58FF0A4C5
:1004EB002AE5F03BE43CF020E7141205A0D0E0FF36
:1004FB00D0E0FED0E0FDD0E0FC12022E8014F4041C
:10050B001205A0D0E0FFD0E0FED0E0FDD0E0FC1261
:10051B000125D082D083E0FAEDD2E7CD33EC332442
:10052B0082FBE4C3CF33CFCE33CECD33CD33DBF32E
:10053B007B0775F00A846004F0A31B0AE5F0F0A3B7
:10054B008FF0740AA4FFACF08EF0740AA42CFEACEE
:10055B00F050010C8DF0740AA42CFDE435F0F0A3DF
:05056B00DBDE74072235
:10241C0033DA929E35B16011377FE5FE392184891C
:10242C003AAEC3FF3C1D955B3D6358473E75FDF0CE
:10243C003F3172183F800000C2D50203F80203EE50
:10244C00BD80FA50F30203F5ED33EC330460F17BFD
:10245C003B7AAA79B8783F120125ED33EC3392D54B
:10246C00247B5011A2D570DB500BED44802404501A
:10247C0004A2D580CEEFFBEEFAEDF9ECF812038254
:10248C00EFF582F404FC12034E120034C082902447
:10249C001C74091205EFED33CC33D0F092D525F036
:0A24AC00A2D57001C313CC13FD226A
:101CE5003E9248DA3ECCCCCD3F2AAAAB400000005C
:101CF5003F8000003F9837F03FB504F33FD744FCE1
:101D05003E3172173EB172173F0515913EDE5BD924
:101D1500D2008002C200EDD2E7F8CD33EC33047077
:101D25000BBD800592D50203F80203EE40FBD314E8
:101D350060F2F5F07C3FEE7A00C39496C8948B4030
:101D4500230AC89469C8941A401A0AC89468C894A2
:101D55001F40110AC8945AC89425400805F07A0016
:101D6500CDC2E7CDC0F090607A1208CBEA2323C03C
:101D7500E024F5F582E4341CF5831208BB12003427
:101D8500ECC0E0EDC0E0EEC0E0EFC0E012089F90CF
:101D9500607A1208AF120030D0E0FBD0E0FAD0E054
:101DA500F9D0E0B2E7F812022E90607A1208CB90D3
:101DB5001CE574031205E090607A1208AF12012544
:101DC500D0E0600F2401F582E4341DF5831208BBD1
:101DD50012003490607A1208CBD0E0C3947FFDE402
:101DE5009400FC1203497B187A727931783F12010D
:101DF5002590607A1208AF12003430000B7BD97A37
:091E05005B79DE783E1201252212
:100570003F8000004120000042C80000447A000093
:10058000461C400047C35000497424004B18968015
:100590004CBEBC205A0E1BCA6753C21C749DC5AE0C
:1005A000FB60065407601C23231205CEEB54386011
:1005B000091205BA1205C9120125ECF8EDF9EEFA97
:1005C000EFCB22EB1205C980F1543803241C9005AF
:1005D00070FE93FC0EEE93FD0EEE930ECE93FF2273
:1005E000C0E0EFFBEEFAEDF9ECF8120125D0E0F5F2
:1005F000F0EFFBEEFAEDF9ECF812089FA3A3A3A32A
:10060000E8C0E0E9C0E0EAC0E0EBC0E0C0F0120101
:10061000251208BBA3A3A3A3120034D0F0D0E0FBA3
:0D062000D0E0FAD0E0F9D0E0F8D5F0D42217
:10255600022764E493A3F8E493A34003F68001F210
:1025660008DFF48029E493A3F85407240CC8C33386
:10257600C4540F4420C8834004F456800146F6DF55
:10258600E4800B010204081020408090202BE47E9A
:10259600019360BCA3FF543F30E509541FFEE4934A
:1025A600A360010ECF54C025E060A840B8E493A311
:1025B600FAE493A3F8E493A3C8C582C8CAC583CA3C
:1025C600F0A3C8C582C8CAC583CADFE9DEE780BEF4
:0121150000C9
:10062D00BB010689828A83E0225002E722BBFE02CB
:09063D00E32289828A83E49322FE
:10064600BB010CE58229F582E5833AF583E0225069
:1006560006E92582F8E622BBFE06E92582F8E222B3
:0D066600E58229F582E5833AF583E49322CD
:10067300BB010689828A83F0225002F722BBFE0166
:02068300F32260
:10068500EF8DF0A4A8F0CF8CF0A428CE8DF0A42E89
:02069500FE2243
:10069700BC000BBE0029EF8DF084FFADF022E4CC47
:1006A700F875F008EF2FFFEE33FEEC33FCEE9DEC10
:1006B700984005FCEE9DFE0FD5F0E9E4CEFD22ED56
:1006C700F8F5F0EE8420D21CFEADF075F008EF2FA0
:1006D700FFED33FD4007985006D5F0F222C398FD91
:0506E7000FD5F0EA222E
:1006EC00A3F8E0C5F025F0F0E582158270021583C1
:0606FC00E0C838F0E8221E
:10070200BB0110E58229F582E5833AF583E0F5F035
:10071200A3E0225009E92582F886F008E622BBFE12
:100722000AE92582F8E2F5F008E222E5832AF58358
:08073200E993F5F0A3E993221D
:10073A00E88FF0A4CC8BF0A42CFCE98EF0A42CFC5E
:10074A008AF0EDA42CFCEA8EF0A4CDA8F08BF0A4DC
:10075A002DCC3825F0FDE98FF0A42CCD35F0FCEB3B
:10076A008EF0A4FEA9F0EB8FF0A4CFC5F02ECD3900
:0F077A00FEE43CFCEAA42DCE35F0FDE43CFC226D
:1007890075F008758200EF2FFFEE33FECD33CDCC27
:1007990033CCC58233C5829BED9AEC99E5829840AA
:1007A9000CF582EE9BFEED9AFDEC99FC0FD5F0D687
:1007B900E4CEFBE4CDFAE4CCF9A88222B800C1B9B1
:1007C9000059BA002DEC8BF084CFCECDFCE5F0CBEF
:1007D900F97818EF2FFFEE33FEED33FDEC33FCEB28
:1007E90033FB10D703994004EB99FB0FD8E5E4F9E3
:1007F900FA227818EF2FFFEE33FEED33FDEC33FCD0
:10080900C933C910D7059BE99A4007EC9BFCE99AC3
:10081900F90FD8E0E4C9FAE4CCFB2275F010EF2F08
:10082900FFEE33FEED33FDCC33CCC833C810D70708
:100839009BEC9AE899400AED9BFDEC9AFCE899F843
:0E0849000FD5F0DAE4CDFBE4CCFAE4C8F922D6
:0E085700C3E49FFFE49EFEE49DFDE49CFC22B2
:10086500EB9FF5F0EA9E42F0E99D42F0EC6480C80A
:0608750064809845F022AA
:10087B00EB9FF5F0EA9E42F0E99D42F0E89C45F0D3
:01088B00224A
:10088C00E8600FECC313FCED13FDEE13FEEF13FF4A
:03089C00D8F1226E
:10089F00E493FC740193FD740293FE740393FF229F
:0C08AF00E0F8A3E0F9A3E0FAA3E0FB22CC
:1008BB00E493F8740193F9740293FA740393FB2293
:0C08CB00ECF0A3EDF0A3EEF0A3EFF022A0
:1008D700A8828583F0D083D0821208EE1208EE1228
:1008E70008EE1208EEE473E493A3C583C5F0C5834D
:1008F700C8C582C8F0A3C583C5F0C583C8C582C86B
:0109070022CD
:10090800F8E0FBA3A3E0F925F0F0E5821582700278
:070918001583E0FA38F0221C
:09091F00EBF0A3EAF0A3E9F022D9
:10092800D083D082F8E4937012740193700DA3A35E
:1009380093F8740193F5828883E473740293686072
:06094800EFA3A3A380DF72
:10094E00D083D082F8E4937012740193700DA3A338
:10095E0093F8740193F5828883E473740293B5F06F
:0D096E00067403936860E9A3A3A3A380D8D7
:10097B00EC8EF0A4CCC5F0CCCDF8EFA4CEC5F02D09
:10098B00FDE43CFCE8A42EC8C5F03DFDE43CFCEFC7
:0D099B00A4FFE5F028FEE43DFDE43CFC2255
:00000001FF
